:10000000803102288731EB2F08001630210097003D
:10001000080033082200D700200032082200D60052
:10002000200031082200D500200030082200D40032
:10003000230027082000A700230026082000A60090
:10004000230025082000A500230024082000A40088
:10005000220067082000A300220066082000A200FA
:10006000220065082000A100220064082000A000F2
:10007000A531C425803120002308B7002208B6002E
:100080002108B5002008B40022003B082000B3007E
:1000900022003A082000B200220039082000B100F6
:1000A000220038082000B00098311F208031200045
:1000B00033082200E300200032082200E200200082
:1000C00031082200E100200030082200E00063082F
:1000D0002000A300220062082000A2002200610884
:1000E0002000A100220060082000A0002200570884
:1000F0002000A700220056082000A6002200550874
:100100002000A500220054082000A400A531C42529
:100110008031200023082200D7002000220822007E
:10012000D600200021082200D5002000200822004F
:10013000D400230027082000B30023002608200055
:10014000B200230025082000B1002300240820006D
:10015000B000230027082000B70023002608200055
:10016000B600230025082000B50023002408200045
:10017000B40098311F208031200033082300C700CD
:10018000200032082300C600200031082300C500EB
:10019000200030082300C40040302000A30040307D
:1001A000A2000030A1000030A0002300470820007A
:1001B000A700230046082000A600230045082000D1
:1001C000A500230044082000A400A531C4258031E7
:1001D000200023082200E300200022082200E20081
:1001E000200021082200E100200020082200E00079
:1001F00057082000A300220056082000A200220079
:1002000055082000A100220054082000A000220070
:1002100063082000A700220062082000A600220038
:1002200061082000A500220060082000A400A5317C
:10023000C4258031200023082300A30020002208C9
:100240002300A200200021082300A1002000200894
:100250002300A00023082400C70023002208240054
:10026000C600230021082400C50023002008240024
:10027000C40047082300CB00240046082300CA001E
:10028000240045082300C900240044082300C800B6
:10029000003048052400C400F03023004905240044
:1002A000C500FF3023004A052400C600FF302300AC
:1002B0004B052400C70047082300A300240046087C
:1002C0002300A200240045082300A10024004408C4
:1002D0002300A000C0302000A3004030A200003066
:1002E000A1000030A000230023082000A700230065
:1002F00022082000A600230021082000A5002300DA
:1003000020082000A400A531C42580312000230846
:100310002200C700200022082200C6002000210879
:100320002200C500200020082200C4002300470846
:100330002000CD00230046082000CC002300450803
:100340002000CB00230044082000CA0022004708F8
:100350002000D100220046082000D00022004508DD
:100360002000CF00220044082000CE00BD317F25B0
:10037000803120004D082200CB0020004C082200D4
:10038000CA0020004B082200C90020004A082200B1
:10039000C8004B082000CD0022004A082000CC00F5
:1003A000220049082000CB00220048082000CA0093
:1003B000220057082000D100220056082000D0005B
:1003C000220055082000CF00220054082000CE0053
:1003D000BD317F25803120004D082200BF00200064
:1003E0004C082200BE0020004B082200BD00200067
:1003F0004A082200BC00230023082000B300230089
:1004000022082000B200230021082000B1002300B0
:1004100020082000B000230027082000B700230098
:1004200026082000B600230025082000B500230080
:1004300024082000B40098311F20803120003308A8
:100440002300AF00200032082300AE002000310856
:100450002300AD00200030082300AC002200670814
:100460002000B300220066082000B20022006508C8
:100470002000B100220064082000B00022003F08E4
:100480002000B70022003E082000B60022003D08F0
:100490002000B50022003C082000B40098311F2045
:1004A000803120003308A3003208A2003108A100E7
:1004B0003008A000230023082000B30023002208F6
:1004C0002000B200230021082000B10023002008F2
:1004D0002000B00022003B082000B70022003A08AC
:1004E0002000B600220039082000B500220038089C
:1004F0002000B40098311F20803120003308A7006D
:100500003208A6003108A5003008A400A531C42592
:100510008031200023082300B3002000220823009C
:10052000B200200021082300B10020002008230091
:10053000B00033082000A300230032082000A200EE
:10054000230031082000A100230030082000A00073
:1005500023002F082000A70023002E082000A6005B
:1005600023002D082000A50023002C082000A40053
:10057000A531C4258031200023082300D7002000A6
:1005800022082300D600200021082300D5002000E7
:1005900020082300D40057082400C7002300560871
:1005A0002400C600230055082400C5002300540879
:1005B0002400C40047082300CB0024004608230081
:1005C000CA00240045082300C90024004408230071
:1005D000C800003048052400C400F030230049055D
:1005E0002400C500FF3023004A052400C600FF3068
:1005F00023004B052400C70047082300D700240030
:1006000046082300D600240045082300D500240016
:1006100044082300D4002F082000CD0023002E081A
:100620002000CC0023002D082000CB0023002C0844
:100630002000CA00230057082000D10023005608DC
:100640002000D000230055082000CF0023005408CC
:100650002000CE00BD317F25803120004D082300D1
:10066000CF0020004C082300CE0020004B082300C0
:10067000CD0020004A082300CC004F082000CD0008
:1006800023004E082000CC0023004D082000CB00A2
:1006900023004C082000CA00230033082000D100AA
:1006A000230032082000D000230031082000CF00B2
:1006B000230030082000CE00BD317F25803120008E
:1006C0004D082200EF0020004C082200EE00200020
:1006D0004B082200ED0020004A082200EC003F30C9
:1006E0002000B3007630B2004030B1000030B000DE
:1006F000230057082000B700230056082000B6004A
:10070000230055082000B500230054082000B40041
:1007100098311F208031200033082200AB002000D8
:1007200032082200AA00200031082200A90020007F
:1007300030082200A8003F302000B3007630B2001D
:100740003830B1004F30B00022006F082000B700F1
:1007500022006E082000B60022006D082000B500BF
:1007600022006C082000B40098311F208031200046
:100770003308A3003208A2003108A1003008A0000D
:10078000B830B300F630B2002330B100C630B0004C
:10079000230057082000B700230056082000B600A9
:1007A000230055082000B500230054082000B400A1
:1007B00098311F20803120003308A7003208A6009E
:1007C0003108A5003008A400A531C42580312000DF
:1007D00023082200E300200022082200E20020007B
:1007E00021082200E100200020082200E000230070
:1007F00059088500580884008435850D8435850D99
:100800000A308407B830853D003F2100D000013F09
:10081000D100023FD200033FD30053082000A300C1
:10082000210052082000A200210051082000A10050
:10083000210050082000A000220063082000A7002B
:10084000220062082000A600220061082000A50006
:10085000220060082000A400A531C42580312000BA
:1008600023082200AF00200022082200AE00200052
:1008700021082200AD00200020082200AC00230047
:100880003708F3003608F2003508F1003408F000AC
:100890000130B2316322803173082300EB0072080B
:1008A000EA007108E9007008E80022002F08200023
:1008B000A30022002E082000A20022002D08200004
:1008C000A10022002C082000A00022002B082000FC
:1008D000A70022002A082000A600220029082000E4
:1008E000A500220028082000A400A531C4258031DD
:1008F000200023082200E300200022082200E2005A
:10090000200021082200E100200020082200E00051
:10091000230059088500580884008435850D8435E6
:10092000850D12308407B830853D003F2100D0008E
:10093000013FD100023FD200033FD3005308200003
:10094000A300210052082000A2002100510820002D
:10095000A100210050082000A00022006308200010
:10096000A700220062082000A600220061082000E3
:10097000A500220060082000A400A531C425803114
:10098000200023082100E000200022082100DF00D1
:10099000200021082100DE00200020082100DD00C9
:1009A00023006B082000A30023006A082000A20097
:1009B000230069082000A100230068082000A0008F
:1009C000210060082000A70021005F082000A60089
:1009D00021005E082000A50021005D082000A40081
:1009E000A531C4258031200023082300BB0020004E
:1009F00022082300BA00200021082300B9002000AB
:100A000020082300B8003B082400C70023003A0850
:100A10002400C600230039082400C500230038083C
:100A20002400C40047082300CB002400460823000C
:100A3000CA00240045082300C900240044082300FC
:100A4000C800003048052400C400F03023004905E8
:100A50002400C500FF3023004A052400C600FF30F3
:100A600023004B052400C70047082300BB002400D7
:100A700046082300BA00240045082300B9002400DA
:100A800044082300B8006B082000CD0023006A084A
:100A90002000CC00230069082000CB002300680858
:100AA0002000CA0023003B082000D10023003A08A0
:100AB0002000D000230039082000CF002300380890
:100AC0002000CE00BD317F25803120004D0823005D
:100AD000CF0020004C082300CE0020004B0823004C
:100AE000CD0020004A082300CC0059088500580892
:100AF00084008435850D8435850D12308407B83027
:100B0000853D003F2100D000013FD100023FD200CF
:100B1000033FD30053082000CD00210052082000DD
:100B2000CC00210051082000CB00210050082000FB
:100B3000CA0023004F082000D10023004E082000E7
:100B4000D00023004D082000CF0023004C082000D7
:100B5000CE00BD317F25803120004D082200CB0022
:100B600020004C082200CA0020004B082200C900C7
:100B700020004A082200C8002B082000CD002200D7
:100B80002A082000CC00220029082000CB002200E7
:100B900028082000CA0022004B082000D1002200B3
:100BA0004A082000D000220049082000CF0022007F
:100BB00048082000CE00BD317F25803120004D083F
:100BC0002100E40020004C082100E30020004B0835
:100BD0002100E20020004A082100E1006408200012
:100BE000CD00210063082000CC0021006208200015
:100BF000CB00210061082000CA0022002F0820003D
:100C0000D10022002E082000D00022002D08200054
:100C1000CF0022002C082000CE00BD317F2580317E
:100C200020004D082200A70020004C082200A6004A
:100C300020004B082200A50020004A082200A40042
:100C400021004F082400C70021004E082400C600E0
:100C500021004D082400C50021004C082400C400D8
:100C600047082300CB00240046082300CA002400C4
:100C700045082300C900240044082300C8000030B0
:100C800048052400C400F030230049052400C500B5
:100C9000FF3023004A052400C600FF3023004B0527
:100CA0002400C70047082200B300240046082200A1
:100CB000B200240045082200B100240044082200AC
:100CC000B00023003B082000B30023003A082000B6
:100CD000B200230039082000B100230038082000AA
:100CE000B000220033082000CD002200320820008E
:100CF000CC00220031082000CB0022003008200068
:100D0000CA0021004F082000D10021004E08200019
:100D1000D00021004D082000CF0021004C08200009
:100D2000CE00BD317F25803120004D08B7004C0832
:100D3000B6004B08B5004A08B40098311F20803136
:100D4000200033082100E800200032082100E700DD
:100D5000200031082100E600200030082100E500D5
:100D6000220027082000B300220026082000B2003D
:100D7000220025082000B100220024082000B00035
:100D800021004F082000B70021004E082000B600C7
:100D900021004D082000B50021004C082000B400BF
:100DA00098311F20803120003308A3003208A200B0
:100DB0003108A1003008A000210068082000A70029
:100DC000210067082000A600210066082000A50079
:100DD000210065082000A400A531C4258031200031
:100DE00023082200EF00200022082200EE0020004D
:100DF00021082200ED00200020082200EC00230042
:100E00003B082000B30023003A082000B200230072
:100E100039082000B100230038082000B00022006B
:100E200033082000B700220032082000B60022005C
:100E300031082000B500220030082000B4009831AD
:100E40001F208031200033082300D7002000320803
:100E50002300D600200031082300D50020003008F0
:100E60002300D40057082000A300230056082000C8
:100E7000A200230055082000A100230054082000F0
:100E8000A00022006F082000A70022006E082000AA
:100E9000A60022006D082000A50022006C0820009A
:100EA000A400A531C4258031200023082300EF00D1
:100EB000200022082300EE00200021082300ED007E
:100EC000200020082300EC006F082400C700230046
:100ED0006E082400C60023006D082400C50023000E
:100EE0006C082400C40047082300E70024004608DB
:100EF0002300E600240045082300E5002400440800
:100F00002300E400E71B8F2F013064020030653BB3
:100F10000030663B4330673B031C8F2F912FAC3171
:100F20001F2C71302000B3004930B200F230B10004
:100F3000CA30B000230043082000B7002300420855
:100F40002000B600230041082000B500230040081F
:100F50002000B40098311F20803120003308230086
:100F6000DF00200032082300DE00200031082300CB
:100F7000DD00200030082300DC0071302000B300C9
:100F80004930B200F230B100CA30B00023005F082F
:100F90002000B70023005E082000B60023005D0893
:100FA0002000B50023005C082000B40098311F2009
:100FB0008031200033082100CB00200032082100BE
:100FC000CA00200031082100C9002000300821009B
:100FD000C8008F31FF2F2100EF0120308400023044
:100FE00085002430BD3134258731A03084000230A3
:100FF00085002030BD31342587312000B3310F2BDF
:101000007F30F700FF30F600FF30F500FF30F400CE
:101010007708F3007608F2007508F1007408F00014
:101020000800163023006606C330031967066404FF
:101030006504031D1C281D28B9282300570820001B
:10104000CD00230056082000CC00230055082000C6
:10105000CB00230054082000CA0023006F082000A2
:10106000D10023006E082000D00023006D0820006E
:10107000CF0023006C082000CE00BD317F258831D1
:1010800020004D08D5004C08D4004B08D3004A0876
:10109000D20022006F082000D90022006E08200034
:1010A000D80022006D082000D70022006C08200024
:1010B000D600B031B7208831031C5F286028B928DA
:1010C0000D302000B300A230B2004230B1006030D9
:1010D000B000230043082000B7002300420820008E
:1010E000B600230041082000B5002300400820007E
:1010F000B40098311F208831200033082300DF001E
:10110000200032082300DE00200031082300DD002B
:10111000200030082300DC000D302000B300A23096
:10112000B2004230B1006030B00023005F08200000
:10113000B70023005E082000B60023005D082000F1
:10114000B50023005C082000B40098311F208831CE
:10115000200033082100CB00200032082100CA0003
:10116000200031082100C900200030082100C800FB
:10117000FF2FFF30230064052200B400FF3023005E
:1011800065052200B500FF30230066052200B60089
:101190007F30230067052200B70034082100D0000B
:1011A000220035082100D100220036082100D2009B
:1011B000220037082100D3001730D400D337D20CD7
:1011C000D10CD00CD40BDE28813050072300D8007E
:1011D000FF302100513D2300D900FF302100523D56
:1011E0002300DA00FF302100533D2300DB000030F4
:1011F000B7000030B6000030B5000030B400220067
:10120000B71B0D29013034020030353B0030363B2E
:101210003F30373B031C0D290E29442A2300640864
:101220002100D000230065082100D10023006608BA
:101230002100D200230067082100D3000030D40031
:101240000030D5008030D6000030D7002300580889
:10125000013E890A21003029D737D60CD50CD40C91
:10126000890B2C295408D0075508D13D5608D23D8A
:101270005708D33D53082300B7002100520823002C
:10128000B600210051082300B500210050082300BA
:10129000B400FF302100D0000030D1000030D20077
:1012A0000030D300230034082100D4002300350887
:1012B0002100D500230036082100D600230037087E
:1012C0002100D7001730D800D737D60CD50CD40C56
:1012D000D80B64295408D0055508D1055608D20505
:1012E0005708D305813050072300D800FF30210074
:1012F000513D2300D900FF302100523D2300DA0088
:10130000FF302100533D2300DB00FF302100D000DF
:10131000FF30D1007F30D2000030D3002300580AC4
:1013200021009629D337D20CD10CD00C890B9229ED
:10133000D009D109D209D30923003408210050056E
:101340002400C40023003508210051052400C500F5
:1013500023003608210052052400C6002300370868
:10136000210053052400C70047082300EB00240098
:1013700046082300EA00240045082300E900240071
:1013800044082300E80000302100D0000030D100E4
:101390008030D2000030D300FF302300340521001C
:1013A000D400FF30230035052100D5007F30230015
:1013B00036052100D6000030230037052100D70074
:1013C0005408D0045508D1045608D2045708D30451
:1013D00023005808173C890A2100F229D337D20C80
:1013E000D10CD00C890BEE2953082300B700210043
:1013F00052082300B600210051082300B500210047
:1014000050082300B400E71F062A072A122AB4094D
:10141000B509B609B709B40A0319B50A0319B60A1A
:101420000319B70A6B082000CD0023006A082000CA
:10143000CC00230069082000CB00230068082000AE
:10144000CA00230057082000D100230056082000BE
:10145000D000230055082000CF00230054082000AE
:10146000CE00BD317F25883120004D082300D700F4
:1014700020004C082300D60020004B082300D50094
:1014800020004A082300D400230057082000A300AE
:10149000230056082000A200230055082000A100C8
:1014A000230054082000A00022006F082000A7009D
:1014B00022006E082000A60022006D082000A50072
:1014C00022006C082000A400A531C425883120002A
:1014D00023082300EB00200022082300EA0020005C
:1014E00021082300E900200020082300E8006B0801
:1014F0002400C70023006A082400C60023006908EE
:101500002400C500230068082400C4004708230005
:10151000CB00240046082300CA002400450823000D
:10152000C900240044082300C800003048052400F6
:10153000C4008030230049052400C500FF3023008B
:101540004A052400C600FF3023004B052400C700D5
:1015500047082300EB00240046082300EA0024008B
:1015600045082300E900240044082300E8003F3038
:101570002000B3003130B2007230B1000030B00052
:1015800023006B082000B70023006A082000B60083
:10159000230069082000B500230068082000B4007B
:1015A00098311F208831200033082300AF0020002D
:1015B00032082300AE00200031082300AD002000D7
:1015C00030082300AC0057082000CD002300560847
:1015D0002000CC00230055082000CB002300540835
:1015E0002000CA0023006B082000D10023006A08F5
:1015F0002000D000230069082000CF0023006808E5
:101600002000CE00BD317F25883120004D08230009
:10161000CF0020004C082300CE0020004B08230000
:10162000CD0020004A082300CC003F302000B3004A
:101630003130B2007230B1001830B00023004F08D2
:101640002000CD0023004E082000CC0023004D08D0
:101650002000CB0023004C082000CA0022006F08A5
:101660002000D10022006E082000D00022006D086A
:101670002000CF0022006C082000CE00BD317F2565
:10168000883120004D08B7004C08B6004B08B50063
:101690004A08B40098311F20883120003308210007
:1016A000EC00200032082100EB002000310821006E
:1016B000EA00200030082100E90035302000B300A6
:1016C000BF30B200BE30B1008C30B00023006B08D8
:1016D0002000B70023006A082000B6002300690834
:1016E0002000B500230068082000B40098311F20B6
:1016F000883120003308A3003208A2003108A1007D
:101700003008A00021006C082000A70021006B0811
:101710002000A60021006A082000A5002100690819
:101720002000A400A531C42588312000230823000F
:10173000B300200022082300B2002000210823006B
:10174000B100200020082300B00033082000A300CF
:10175000230032082000A200230031082000A1004D
:10176000230030082000A00023002F082000A7003D
:1017700023002E082000A60023002D082000A5002D
:1017800023002C082000A400A531C42588312000A6
:1017900023082300EF00200022082300EE00200091
:1017A00021082300ED00200020082300EC002F0872
:1017B0002000CD0023002E082000CC0023002D089F
:1017C0002000CB0023002C082000CA0023006F0853
:1017D0002000D10023006E082000D00023006D08F7
:1017E0002000CF0023006C082000CE00BD317F25F3
:1017F000883120004D082300CF0020004C08230032
:10180000CE0020004B082300CD0020004A08230012
:10181000CC004F082000CD0023004E082000CC0053
:1018200023004D082000CB0023004C082000CA00F4
:10183000230033082000D100230032082000D0000C
:10184000230031082000CF00230030082000CE0004
:10185000BD317F25883120004D082200CF002000B7
:101860004C082200CE0020004B082200CD002000B2
:101870004A082200CC0023006F082000B300230098
:101880006E082000B20023006D082000B100230084
:101890006C082000B00023006F082000B700230070
:1018A0006E082000B60023006D082000B50023005C
:1018B0006C082000B40098311F20883120003308C4
:1018C0002300EB00200032082300EA00200031084A
:1018D0002300E900200030082300E800B530200094
:1018E000A300DD30A200EA30A1000E30A0003330AA
:1018F000B3003130B200BB30B1004C30B000230037
:101900006B082000B70023006A082000B6002300FF
:1019100069082000B500230068082000B400983151
:101920001F20883120003308A7003208A6003108A4
:10193000A5003008A400A531C42588312000230863
:101940002300DF00200022082300DE002000210801
:101950002300DD00200020082300DC0038302000B8
:10196000A3008A30A200B330A1005530A0002300AC
:101970006B082000B30023006A082000B200230097
:1019800069082000B100230068082000B00023008F
:101990005F082000B70023005E082000B600230087
:1019A0005D082000B50023005C082000B4009831D9
:1019B0001F20883120003308A7003208A600310814
:1019C000A5003008A400A531C425883120002308D3
:1019D0002200DF00200022082200DE002000210873
:1019E0002200DD00200020082200DC00BB302000A7
:1019F000A3003630A2000B30A1006130A00023000C
:101A00006B082000B30023006A082000B200230006
:101A100069082000B100230068082000B0002200FF
:101A20005F082000B70022005E082000B6002200F8
:101A30005D082000B50022005C082000B400983149
:101A40001F20883120003308A7003208A600310883
:101A5000A5003008A400A531C42588312000230842
:101A60002200D300200022082200D20020002108FA
:101A70002200D100200020082200D0003E302000AB
:101A8000A3002A30A200AA30A100AB30A00023009E
:101A90006B082000B30023006A082000B200230076
:101AA00069082000B100230068082000B00022006F
:101AB00053082000B700220052082000B600220080
:101AC00051082000B500220050082000B4009831D1
:101AD0001F20883120003308A7003208A6003108F3
:101AE000A5003008A400A531C425883120002308B2
:101AF0002200C300200022082200C200200021088A
:101B00002200C100200020082200C00023006B0832
:101B10002000B30023006A082000B20023006908F7
:101B20002000B100230068082000B0002200430814
:101B30002000B700220042082000B6002200410821
:101B40002000B500220040082000B40098311F207A
:101B5000883120003308CD003208CC003108CB009A
:101B60003008CA0023006F082000D10023006E084F
:101B70002000D00023006D082000CF0023006C0857
:101B80002000CE00BD317F25883120004D08230084
:101B9000BB0020004C082300BA0020004B082300A3
:101BA000B90020004A082300B80022004F08200096
:101BB000A30022004E082000A20022004D082000B1
:101BC000A10022004C082000A00022004F082000A5
:101BD000B30022004E082000B20022004D08200071
:101BE000B10022004C082000B00023006F08200044
:101BF000B70023006E082000B60023006D08200007
:101C0000B50023006C082000B40098311F208831F3
:101C100020003308A7003208A6003108A5003008CC
:101C2000A400A531C4258831200023082200C70064
:101C3000200022082200C600200021082200C50042
:101C4000200020082200C400C0302000A300003083
:101C5000A2000030A1000030A00023003B082000BB
:101C6000A70023003A082000A6002300390820001E
:101C7000A500230038082000A400A531C425883120
:101C800020002308D5002208D4002108D300200812
:101C9000D20023003B082000B30023003A082000B4
:101CA000B200230039082000B100230038082000CA
:101CB000B00023006F082000B70023006E0820004A
:101CC000B60023006D082000B50023006C0820003A
:101CD000B40098311F20883120003308D900320821
:101CE000D8003108D7003008D600A2313E22883112
:101CF000200055082200A300200054082200A20062
:101D0000200053082200A100200052082200A00059
:101D100047082000CD00220046082000CC00220009
:101D200045082000CB00220044082000CA00220001
:101D300023082000D100220022082000D000220029
:101D400021082000CF00220020082000CE00BD3155
:101D50007F25883120004D082200D70020004C0844
:101D60002200D60020004B082200D50020004A089F
:101D70002200D40023006F082000CD0023006E084D
:101D80002000CC0023006D082000CB0023006C084D
:101D90002000CA00220057082000D1002200560867
:101DA0002000D000220055082000CF002200540857
:101DB0002000CE00BD317F25883120004D08230052
:101DC000CF0020004C082300CE0020004B08230049
:101DD000CD0020004A082300CC004F082000CD0091
:101DE00023004E082000CC0023004D082000CB002B
:101DF00023004C082000CA003F30D1008030D000C2
:101E00000030CF000030CE00BD317F25883120006A
:101E10004D082300EF0020004C082300EE002000B6
:101E20004B082300ED0020004A082300EC006F0857
:101E30002400C70023006E082400C60023006D089C
:101E40002400C50023006C082400C40047082300B8
:101E5000E700240046082300E6002400450823008C
:101E6000E500240044082300E40034082100D000E9
:101E7000230035082100D100230036082100D200BC
:101E8000230037082100D3001730D035D10DD20DF3
:101E9000D30D890B452F50082300E407210051087A
:101EA0002300E53D210052082300E63D21005308B0
:101EB0002300E73D64082100D000230065082100CD
:101EC000D100230066082100D2002300670821000A
:101ED000D3001730D400D337D20CD10CD00CD40B94
:101EE0006B2FD31B822F5308031D812F5208031D14
:101EF000812F5108031D812F013050020318812FBB
:101F0000822FAE2F23006F082000CD0023006E0823
:101F10002000CC0023006D082000CB0023006C08BB
:101F20002000CA00230035082000CF002300340819
:101F30002000CE00A831AD20883120004D082300BC
:101F4000EF0020004C082300EE0020004B08230087
:101F5000ED0020004A082300EC00CD2F2300670885
:101F60002400C700230066082400C600230065087B
:101F70002400C500230064082400C400470823008F
:101F8000EF00240046082300EE002400450823004B
:101F9000ED00240044082300EC006F082000B3008B
:101FA00023006E082000B20023006D082000B1005D
:101FB00023006C082000B000230043082000B70075
:101FC000230042082000B600230041082000B5008D
:101FD000230040082000B40098311F2088312000E1
:101FE00033082100CB00200032082100CA00200065
:101FF00031082100C900200030082100C800080075
:102002002200580359045A045B04031D09280A28B4
:102012001F2823006F08F3006E08F2006D08F1001C
:102022006C08F000BD315E25903173082300EF008B
:102032007208EE007108ED007008EC0023006F08D2
:102042002100CB0023006E082100CA0023006D0886
:102052002100C90023006C082100C8008F31FF2F26
:102062003F302300C3008030C2000030C100003086
:10207200C0002200EB1F3E283F28C4285B085A04F8
:1020820059045804031D46284728B32821004B0849
:102092002000CD0021004A082000CC002100490880
:1020A2002000CB00210048082000CA0021004B0874
:1020B2002000D10021004A082000D0002100490858
:1020C2002000CF00210048082000CE00BD317F252E
:1020D200903120004D08D5004C08D4004B08D300A5
:1020E2004A08D20021004B082000CD0021004A08F6
:1020F2002000CC00210049082000CB002100480824
:102102002000CA0021004B082000D10021004A080B
:102112002000D000210049082000CF0021004808FB
:102122002000CE00BD317F25903120004D08D9001E
:102132004C08D8004B08D7004A08D600A2313E22EC
:102142009031200055082100CB00200054082100C6
:10215200CA00200053082100C900200052082100B3
:10216200C8002F28580359045A045B04031DBA28D7
:10217200BB28C428BF302300C3008030C200003017
:10218200C1000030C0002300D31BD228013050020E
:102192000030513B0030523B4D30533B031CD228A0
:1021A200D428AE31A62E2300E31BE428F8306002C7
:1021B200FF30613B7F30623B3F30633B0318E228D4
:1021C200E428AB314B2B2300BF1BE828EA28AA31B5
:1021D200F12A0D302000B300A230B2004230B1002B
:1021E2006030B000230043082000B70023004208FB
:1021F2002000B600230041082000B500230040085B
:102202002000B40098311F209031200033082300B1
:10221200DF00200032082300DE0020003108230006
:10222200DD00200030082300DC000D302000B30068
:10223200A230B2004230B1006030B00023005F082B
:102242002000B70023005E082000B60023005D08CE
:102252002000B50023005C082000B40098311F2044
:102262009031200033082100CB00200032082100E9
:10227200CA00200031082100C900200030082100D6
:10228200C8002F28240027082200A30024002608C3
:102292002200A200240025082200A1002400240814
:1022A2002200A00020006F082200A30020006E0878
:1022B2002200A20020006D082200A10020006C086C
:1022C2002200A0002308AB002208AA002108A900CE
:1022D2002008A8002100C801C90122002B08031D03
:1022E200782980302A02031C77297829972922002D
:1022F20028082100A000220029082100A1002200B4
:102302002A082100A20022002B082100A3001F306E
:10231200A336A20CA10CA00C890B89292308220444
:1023220021042004031996299729772A22002808D4
:102332002100A000220029082100A10022002A0871
:102342002100A20022002B082100A3000130A035A9
:10235200A10DA20DA30D890BA82923082204210493
:102362002004031DB529B629E82920006F08B3000F
:102372006E08B2006D08B1006C08B0006F08B700BB
:102382006E08B6006D08B5006C08B40098311F20C5
:10239200913120003308D5003208D4003108D3002F
:1023A2003008D200BF30D9008030D8000030D700CA
:1023B2000030D600A2313E22913120005508EF00B4
:1023C2005408EE005308ED005208EC00FF2F2200E3
:1023D20028082100A000220029082100A1002200D3
:1023E2002A082100A20022002B082100A3001F308E
:1023F200A336A20CA10CA00C890BF92923082204F4
:10240200210420040319062A072A3E2A2130240027
:10241200C0000030C10000302000D5000030D400E0
:102422000030D3000030D2006F08CD006E08CC001F
:102432006D08CB006C08CA006F08D1006E08D0008E
:102442006D08CF006C08CE00BD317F259131200090
:102452004D08D9004C08D8004B08D7004A08D600CE
:10246200A2313E22913120005508EF005408EE00BF
:102472005308ED005208EC00FF2FE730C807FF3089
:10248200C93D4C302000B3000030B2000030B10032
:102492000030B0006F08B7006E08B6006D08B500D6
:1024A2006C08B40098311F20913120003308EF00EE
:1024B2003208EE003108ED003008EC006F0822000F
:1024C200A30020006E082200A20020006D08220056
:1024D200A10020006C082200A0002308AB00220803
:1024E200AA002108A9002008A800972A803022000B
:1024F2002A027F302B3B031C7F2A802A812AFF2F4E
:10250200803022002A063F3003192B0628042904B2
:10251200031D8C2A8D2A972A00302000EF000030FC
:10252200EE000030ED000030EC00FF2F0D302200F5
:10253200A807FB30A93D4A30AA3D0030AB3D280830
:102542002100A000220029082100A10022002A085F
:102552002100A20022002B082100A3001730A3367D
:10256200A20CA10CA00C890BB02A2008813EA40069
:10257200FF30213DA5002408C8072508C93DF330D6
:10258200A0000430A1003530A2003F30A300FF308C
:10259200220028052100A400FF3022002905210085
:1025A200A5007F3022002A052100A600003022006B
:1025B2002B052100A7002408A0072508A13D260815
:1025C200A23D2708A33D23082200AB0021002208D8
:1025D2002200AA00210021082200A90021002008CF
:1025E2002200A8002B08A3002A08A2002908A100A3
:1025F2002808A00023082000EF0022002208200063
:10260200EE00220021082000ED0022002008200018
:10261200EC00BF30A3008030A2000030A1000030E7
:10262200A0006F08A7006E08A6006D08A5006C0840
:10263200A400A531C4259131200023082200A7005F
:10264200200022082200A600200021082200A50066
:10265200200020082200A40040302000A300003007
:10266200A2000030A1000030A000220027082000B4
:10267200A700220026082000A6002200250820002C
:10268200A500220024082000A400A531C425913110
:1026920020002308D5002208D4002108D3002008F6
:1026A200D200220027082000D9002200260820009C
:1026B200D800220025082000D7002200240820008C
:1026C200D600A2313E229131200055082100DD00C2
:1026D200200054082100DC00200053082100DB0008
:1026E200200052082100DA005D082000B30021001A
:1026F2005C082000B20021005B082000B10021002C
:102702005A082000B00021005D082000B700210017
:102712005C082000B60021005B082000B500210003
:102722005A082000B40098311F209131200033084C
:102732002100E100200032082100E00020003108E1
:102742002100DF00200030082100DE0061082000A7
:10275200B300210060082000B20021005F082000C1
:10276200B10021005E082000B000210061082000B5
:10277200B700210060082000B60021005F08200099
:10278200B50021005E082000B40098311F2091316D
:10279200200033082100E500200032082100E40077
:1027A200200031082100E300200030082100E2006F
:1027B2003E302000A300CC30A200CE30A100133066
:1027C200A0003E30B3007830B2009E30B100263017
:1027D200B000210065082000B70021006408200035
:1027E200B600210063082000B50021006208200025
:1027F200B40098311F20913120003308A70032081D
:10280200A6003108A5003008A400A531C4259131E5
:10281200200023082100E900200022082100E8000E
:10282200200021082100E700200020082100E60006
:1028320065082000B300210064082000B2002100D6
:1028420063082000B100210062082000B0002100CE
:1028520069082000B700210068082000B6002100A6
:1028620067082000B500210066082000B4009831F6
:102872001F209131200033082100AF0020003208D0
:102882002100AE00200031082100AD0020003008F8
:102892002100AC003F302000A3002A30A200AA3061
:1028A200A100AA30A0003E30B3009130B200E9305E
:1028B200B100EE30B000210065082000B700210011
:1028C20064082000B600210063082000B500210042
:1028D20062082000B40098311F2091312000330893
:1028E200A7003208A6003108A5003008A400A531CF
:1028F200C4259131200023082100E900200022088C
:102902002100E800200021082100E7002000200823
:102912002100E60061082000B300210060082000C9
:10292200B20021005F082000B10021005E082000F3
:10293200B000210069082000B700210068082000CB
:10294200B600210067082000B500210066082000BB
:10295200B40098311F209131200033082100B300C8
:10296200200032082100B200200031082100B1000D
:10297200200030082100B0002F082000A300210011
:102982002E082000A20021002D082000A100210015
:102992002C082000A000210033082000A7002100FD
:1029A20032082000A600210031082000A5002100E5
:1029B20030082000A400A531C4259131200023084D
:1029C2002100AB00200022082100AA0020002108DB
:1029D2002100A900200020082100A8003F3020008B
:1029E200B3000030B2000030B1000030B00022006D
:1029F20027082000B700220026082000B600220087
:102A020025082000B500220024082000B4009831D7
:102A12001F209131200033082100E90020003208F4
:102A22002100E800200031082100E70020003008E2
:102A32002100E600220027082000B3002200260819
:102A42002000B200220025082000B1002200240844
:102A52002000B000210069082000B70021006808AA
:102A62002000B600210067082000B500210066089A
:102A72002000B40098311F2091312000330821003A
:102A8200D900200032082100D8002000310821009E
:102A9200D700200030082100D60059082000CD00C0
:102AA200210058082000CC00210057082000CB004C
:102AB200210056082000CA00220027082000D10069
:102AC200220026082000D000220025082000CF0086
:102AD200220024082000CE00BD317F259131200044
:102AE2004D082100ED0020004C082100EC002000E0
:102AF2004B082100EB0020004A082100EA006D0883
:102B02002200A30021006C082200A20021006B0811
:102B12002200A10021006A082200A0000030A005C6
:102B2200F030A105FF30A205FF30A30523082100E4
:102B3200ED00220022082100EC00220021082100E1
:102B4200EB00220020082100EA006D082000CD00E1
:102B520021006C082000CC0021006B082000CB0073
:102B620021006A082000CA00220027082000D100A4
:102B7200220026082000D000220025082000CF00D5
:102B8200220024082000CE00BD317F259131200093
:102B92004D082100B70020004C082100B60020009B
:102BA2004B082100B50020004A082100B4005D084E
:102BB2002000B30021005C082000B20021005B0865
:102BC2002000B10021005A082000B00021002B088B
:102BD2002000A30021002A082000A20021002908C9
:102BE2002000A100210028082000A000210059088F
:102BF2002000A700210058082000A6002100570845
:102C02002000A500210056082000A400A531C425FB
:102C1200913120002308B7002208B6002108B50030
:102C22002008B40098311F20913120003308210080
:102C3200D500200032082100D400200031082100F4
:102C4200D300200030082100D20059082000CD0016
:102C5200210058082000CC00210057082000CB009A
:102C6200210056082000CA00210037082000D100A8
:102C7200210036082000D000210035082000CF00B6
:102C8200210034082000CE00BD317F259131200083
:102C92004D082100BB0020004C082100BA00200092
:102CA2004B082100B90020004A082100B80055084D
:102CB2002000A300210054082000A2002100530894
:102CC2002000A100210052082000A00021003B08A2
:102CD2002000A70021003A082000A60021003908A0
:102CE2002000A500210038082000A400A531C42539
:102CF2009131200023082100D10020002208210068
:102D0200D000200021082100CF002000200821004F
:102D1200CE004808F0004908F100890D893B890975
:102D2200F200F3000130B2316322913173082100C5
:102D3200CD007208CC007108CB007008CA00B83010
:102D42002000B3000430B200EA30B100D930B00044
:102D520021006D082000A30021006C082000A200C1
:102D620021006B082000A10021006A082000A000B9
:102D7200210051082000A700210050082000A600D1
:102D820021004F082000A50021004E082000A400C9
:102D9200A531C425913120002308B7002208B600CE
:102DA2002108B5002008B40098311F20913120007D
:102DB20033082100BF00200032082100BE0020009D
:102DC20031082100BD00200030082100BC003F086E
:102DD2002000A30021003E082000A20021003D089F
:102DE2002000A10021003C082000A0003530B300E3
:102DF2005430B2002730B100DB30B00021004D0862
:102E02002000B70021004C082000B60021004B082A
:102E12002000B50021004A082000B40098311F208C
:102E2200913120003308A7003208A6003108A5001E
:102E32003008A400A531C4259131200023082100C7
:102E4200D500200022082100D40020002108210002
:102E5200D300200020082100D2003E302000B30021
:102E6200DE30B2006030B1000030B0002100510805
:102E72002000B700210050082000B60021004F08B2
:102E82002000B50021004E082000B40098311F2018
:102E9200913120003308A3003208A2003108A100BA
:102EA2003008A000210055082000A7002100540886
:102EB2002000A600210053082000A500210052088E
:102EC2002000A400A531C42591312000230821004F
:102ED200C300200022082100C20020002108210096
:102EE200C100200020082100C0003E302000B300B5
:102EF200DE30B2006030B1000030B00021006D0859
:102F02002000B70021006C082000B60021006B08E9
:102F12002000B50021006A082000B40098311F206B
:102F2200913120003308A3003208A2003108A10029
:102F32003008A000210043082000A7002100420819
:102F42002000A600210041082000A5002100400821
:102F52002000A400A531C4259131200023082100BE
:102F6200C700200022082100C600200021082100FD
:102F7200C500200020082100C4003E302000B3001C
:102F82009A30B2002030B1008030B00021004D08EC
:102F92002000B70021004C082000B60021004B0899
:102FA2002000B50021004A082000B40098311F20FB
:102FB200913120003308A3003208A2003108A10099
:102FC2003008A000210047082000A7002100460881
:102FD2002000A600210045082000A5002100440889
:102FE2002000A400A531C425913120002308EF0060
:0E2FF2002208EE002108ED002008EC00080087
:103002008330220097000800F4007408F20072086E
:10301200F3000F280130F2007208F40774088600EA
:10302200023087000108031D172818280B2873088F
:103032007402F000F101F01BF103080020003308D4
:103042008039B8003808BD003335B8003808C300ED
:10305200B21F2C282D282E28431443080319322886
:1030620033284228430A031D3728382840280030D5
:10307200B3000030B2000030B1000030B000B2172F
:103082004A280030B3000030B2000030B1000030F6
:10309200B00037088039B8003808BD063735B800A7
:1030A2003808C200B61F562857285828421442082A
:1030B20003195C285D286C28420A031D61286228D6
:1030C2006A280030B7000030B6000030B50000308A
:1030D200B400B61774280030B7000030B6000030D4
:1030E200B5000030B40042080319782879287E28F8
:1030F2004308031D7D287E2887280030B300003056
:10310200B2000030B1000030B000752A3008B800BB
:103112003808F0003608BD31E325983171082000E7
:10312200C9007008C8004808B800B901BA01BB015B
:103132003B08C1003A08C0003908BF003808BE0089
:103142004908B800B901BA01BB013B08C7003A08F7
:10315200C6003908C5003808C4003108B80038086C
:10316200F0003508BD31E325983171082000C9000F
:103172007008C8004808B800B901BA01BB01380894
:10318200BE073908BF3D3A08C03D3B08C13D49086A
:10319200B800B901BA01BB013808C4073908C53DF6
:1031A2003A08C63D3B08C73D3208B8003808F0006F
:1031B2003408BD31E325983171082000C900700838
:1031C200C8004808B800B901BA01BB013808BE07F7
:1031D2003908BF3D3A08C03D3B08C13D4908B80027
:1031E200B901BA01BB013808C4073908C53D3A081C
:1031F200C63D3B08C73D0830BE35BF0DC00DC10DF1
:10320200890BFD283108B8003808F0003408BD31B8
:10321200E325983171082000C9007008C8004808E9
:10322200BE074908BF3D0030C03DC13D3008B8006F
:103232003808F0003508BD31E325983171082000C7
:10324200C9007008C8004808BE074908BF3D0030E1
:10325200C03DC13D0830BE35BF0DC00DC10D890B4B
:103262002C293008B8003808F0003408BD31E325B5
:10327200983171082000C9007008C8004808BE07CC
:103282004908BF3D0030C03DC13D3108B800380893
:10329200F0003608BD31E325983171082000C900DD
:1032A2007008C8004808C4074908C53D0030C63D3B
:1032B200C73D3208B8003808F0003508BD31E325B3
:1032C200983171082000C9007008C8004808C40776
:1032D2004908C53D0030C63DC73D3208B800380830
:1032E200F0003608BD31E325983171082000C9008D
:1032F2007008C8004808B8004908B900BA01BB0103
:103302000830B835B90DBA0DBB0D890B82293808C2
:10331200C4073908C53D3A08C63D3B08C73D3E08CB
:10332200B8003F08B9004008BA004108BB00183095
:10333200BB36BA0CB90CB80C890B99293808C407EA
:103342003908C53D3A08C63D3B08C73D0830BE3581
:10335200BF0DC00DC10D890BA82943084207B80053
:10336200B901B90D3808823EC800FF30393DC900A5
:10337200D1290130C435C50DC60DC70D890BBB2936
:10338200C11FC429C529C62944140130BE35BF0D49
:10339200C00DC10D890BC729FF30C807FF30C93DD9
:1033A200C61FD429D529BA29C201C11FD929DA29B0
:1033B200F629FF303E05B800FF303F05B900FF3067
:1033C2004005BA007F304105BB003B083A0439048E
:1033D20038040319ED29EE29F129C201C20AF6299E
:1033E200441CF429F529F629EE2942080319FA2981
:1033F200FB29232A0130C4070030C53D0030C63DF9
:103402000030C73D471C062A072A232A4408B80071
:103412004508B9004608BA004708BB000130BC00A5
:10342200BB37BA0CB90CB80CBC0B112A3B08C7004D
:103432003A08C6003908C5003808C4000130C80778
:103442000030C93D4908803AB80080303802031D77
:103452002C2AFF304802031C2F2A302A3A2A7F30B6
:103462002000C7008030C6000030C5000030C40014
:10347200692A20004908803AB80080303802031DCA
:10348200442A013048020318472A482A532A0030A6
:103492002000C7000030C6000030C5000030C40064
:1034A200BD01692A20004808B8003808C300FF306F
:1034B200C405FF30C5057F30C6050030C705431C73
:1034C200632A642A652AC6174336B8003808C7003B
:1034D2003D08B8003808C7044708B3004608B200E0
:1034E2004508B1004408B0000800BF302000A30026
:1034F2008030A2000030A1000030A00023002B0881
:103502002000A70023002A082000A6002300290883
:103512002000A500230028082000A400A531C4250E
:103522009A31200023082300EB0020002208230008
:10353200EA00200021082300E900200020082300DF
:10354200E8003E302000B3008030B2000030B1000D
:103552000030B00023006B082000B70023006A0887
:103562002000B600230069082000B5002300680887
:103572002000B40098311F209A3120003308CD007A
:103582003208CC003108CB003008CA003E30D100EE
:10359200AA30D000AA30CF00AB30CE00BD317F259B
:1035A2009A3120004D082300DF0020004C08230040
:1035B200DE0020004B082300DD0020004A08230023
:1035C200DC006B082000B30023006A082000B20070
:1035D200230069082000B100230068082000B00021
:1035E20023005F082000B70023005E082000B60019
:1035F20023005D082000B50023005C082000B40011
:1036020098311F209A3120003308CD003208CC00B7
:103612003108CB003008CA003F30D1000030D00062
:103622000030CF000030CE00BD317F259A3120001E
:103632004D082200DF0020004C082200DE0020009E
:103642004B082200DD0020004A082200DC00230093
:103652006B082000B30023006A082000B200230098
:1036620069082000B100230068082000B000230090
:103672006B082000B70023006A082000B600230070
:1036820069082000B500230068082000B4009831C2
:103692001F209A31200033082200D3002000320874
:1036A2002200D200200031082200D1002000300880
:1036B2002200D0005F082000B30022005E08200034
:1036C200B20022005D082000B10022005C08200048
:1036D200B000220053082000B70022005208200048
:1036E200B600220051082000B50022005008200038
:1036F200B40098311F209A31200033082200CF00F5
:10370200200032082200CE00200031082200CD0025
:10371200200030082200CC003F302000B300B83037
:10372200B200AA30B1000030B00023006B082000C4
:10373200B70023006A082000B600230069082000B1
:10374200B500230068082000B40098311F209A3188
:10375200200033082300AF00200032082300AE000F
:10376200200031082300AD00200030082300AC0007
:103772003F302000B300B830B200AA30B1003B3075
:10378200B00022004F082000B70022004E0820009F
:10379200B60022004D082000B50022004C0820008F
:1037A200B40098311F209A3120003308CD0032082E
:1037B200CC003108CB003008CA003630B300EC3000
:1037C200B200A530B1007030B00023006B082000B9
:1037D200B70023006A082000B60023006908200011
:1037E200B500230068082000B40098311F209A31E8
:1037F20020003308D1003208D0003108CF00300851
:10380200CE00BD317F259A3120004D082300B30040
:1038120020004C082300B20020004B082300B10016
:1038220020004A082300B00033082000A300230030
:1038320032082000A200230031082000A10023004A
:1038420030082000A00023002F082000A70023003A
:103852002E082000A60023002D082000A50023002A
:103862002C082000A400A531C4259A312000230889
:103872002300BB00200022082300BA0020002108F8
:103882002300B900200020082300B8003B082400D0
:10389200C70023003A082400C60023003908240088
:1038A200C500230038082400C40047082300CB00C9
:1038B200240046082300CA00240045082300C9004A
:1038C200240044082300C800003048052400C40036
:1038D200F030230049052400C500FF3023004A05CB
:1038E2002400C600FF3023004B052400C700470810
:1038F2002300BB00240046082300BA002400450828
:103902002300B900240044082300B8002F08200037
:10391200CD0023002E082000CC0023002D0820001B
:10392200CB0023002C082000CA0023003B08200003
:10393200D10023003A082000D000230039082000DB
:10394200CF00230038082000CE00BD317F259A31F8
:1039520020004D082300CF0020004C082300CE0099
:1039620020004B082300CD0020004A082300CC0091
:103972004F082000CD0023004E082000CC00230079
:103982004D082000CB0023004C082000CA00230071
:1039920033082000D100230032082000D000230089
:1039A20031082000CF00230030082000CE00BD31B6
:1039B2007F259A3120004D082200A70020004C08E4
:1039C2002200A60020004B082200A50020004A0881
:1039D2002200A4008631202E200061082100AF00C1
:1039E200200060082100AE0020005F082100AD0029
:1039F20020005E082100AC002F08C7002E08C60078
:103A02002D08C5002C08C400003044052000E20047
:103A12000030210045052000E300803021004605EA
:103A22002000E4007F30210047052000E5008030BF
:103A320064067F300319650662046304031D222DA8
:103A4200232D552D20006108A3006008A2005F0805
:103A5200A1005E08A0006108B3006008B2005F0820
:103A6200B1005E08B0006108B7006008B6005F08E8
:103A7200B5005E08B40098311F209C312000330845
:103A8200A7003208A6003108A5003008A400A5311D
:103A9200C4259C3120002308E1002208E00021080F
:103AA200DF002008DE00FF2F2100C71B672D47081B
:103AB200031D662D4608031D662D4508031D662D50
:103AC200013044020318662D672D9F2DFF3021001F
:103AD20044052000E200FF30210045052000E300FC
:103AE200FF30210046052000E4007F302100470519
:103AF2002000E5006508640463046204031D822D4E
:103B0200832D842DFF2F2100C71F882D892D9F2DE6
:103B120021302400C0000030C1000930F000B8306C
:103B2200F100883100209C3173082000E100720806
:103B3200E0007108DF007008DE00FF2F210044085A
:103B42002000E200210045082000E3002100460891
:103B52002000E400210047082000E5001730E600BD
:103B6200E537E40CE30CE20CE60BB12D650821000D
:103B7200BF00200064082100BE002000630821006D
:103B8200BD00200062082100BC003F083E043D0445
:103B92003C04031DCD2DCE2D122E0030AB00003083
:103BA200AA000030A9000030A800E62D0130C4357B
:103BB200C50DC60DC70D890BD82D0130A8070030E1
:103BC200A93D0030AA3D0030AB3DC61FE92DEA2DCC
:103BD200D72DFF302000E200FF30E300FF30E40089
:103BE200FF30E500210028082000E2072100290813
:103BF2002000E33D21002A082000E43D21002B089B
:103C02002000E53D62082100BC022000630821007B
:103C1200BD3B200064082100BE3B20006508210056
:103C2200BF3B8130BC07FF30BD3DFF30BE3DFF30A2
:103C3200BF3D00302000E2000030E3008030E400AD
:103C42000030E500FF30210044052000E600FF308F
:103C5200210045052000E7007F30210046052000B5
:103C6200E8000030210047052000E9006608E20470
:103C72006708E3046808E4046908E50465082100AC
:103C8200C700200064082100C6002000630821004C
:103C9200C500200062082100C4003C1C512E522E97
:103CA2005A2E4408C4074508C53D4608C63D470884
:103CB200C73D01302000E2002100BF37BE0CBD0C21
:103CC200BC0C2000E20B5D2E21004408C40745080D
:103CD200C53D4608C63D4708C73D0030A700003035
:103CE200A6000030A5000030A4002708B300260873
:103CF200B2002508B1002408B0000130C300003032
:103D0200C2000030C1000030C000042F4008240768
:103D12002000E20021004108253D2000E3002100AF
:103D22004208263D2000E40021004308273D2000F0
:103D3200E50065082100B700200064082100B600F4
:103D4200200063082100B500200062082100B400B1
:103D52004708803A2000E20021003708803A20001C
:103D620062022100031DBF2E36084602031DBF2E2C
:103D720035084502031DBF2E34084402031CC22E1F
:103D8200C32EF52E400834072000E200210041082E
:103D9200353D2000E30021004208363D2000E400CA
:103DA20021004308373D2000E50065082100A700F7
:103DB200200064082100A600200063082100A5005D
:103DC200200062082100A4003408C4023508C53B63
:103DD2003608C63B3708C73B4008B0074108B13D2B
:103DE2004208B23D4308B33D4408C4074508C53DF7
:103DF2004608C63D4708C73D0130C336C20CC10C58
:103E0200C00C890BFE2E4308420441044004031DEA
:103E12000B2F0C2F872E4708460445044404031930
:103E2200132F142F902F3F30BB008030BA00003088
:103E3200B9000030B8003B082000D50021003A0844
:103E42002000D400210039082000D30021003808C6
:103E52002000D2003F30D9008030D8000030D70097
:103E62000030D600B031B7209C31031C392F3A2FD5
:103E7200902F3F302100BB008030BA000030B900E3
:103E82000030B8003F302000D5008030D400003030
:103E9200D3000030D20021003B082000D9002100CD
:103EA2003A082000D800210039082000D70021005C
:103EB20038082000D600B031B7209C310318622F99
:103EC200632F6D2F02302100B0070030B13D00306A
:103ED200B23D0030B33D902F01302100300520006B
:103EE200E2000030210031052000E3000030210013
:103EF20032052000E4000030210033052000E500F7
:103F020062082100B007200063082100B13D2000B3
:103F120064082100B23D200065082100B33D210064
:103F220030082000E200210031082000E3002100D7
:103F320032082000E400210033082000E5000130AF
:103F4200E600E537E40CE30CE20CE60BA22F0030AE
:103F520062072100C40000302000633D2100C5003B
:103F620000302000643D2100C6003F302000653D46
:103F72002100C7003C082000E20021003D0820008B
:103F8200E30021003E082000E40021003F08200059
:103F9200E5001730E235E30DE40DE50D890BCB2F7B
:103FA20062082100C407200063082100C53D2000EB
:103FB20064082100C63D200065082100C73D47086E
:103FC200AF004608AE004508AD004408AC002F081B
:103FD200BB002E08BA002D08B9002C08B8003B0817
:103FE2002000E10021003A082000E0002100390809
:0E3FF2002000DF00210038082000DE0008005B
:104008007408803AF50080307502031D0D280130D0
:1040180073020318102811281D287309F500740964
:10402800F600F50A0319F60A7508F3007608F40095
:104038001D28080033082200BB0020003208220097
:10404800BA00200031082200B90020003008220000
:10405800B80067082000B300220066082000B200FC
:10406800220065082000B100220064082000B0008A
:10407800220067082000B700220066082000B6006A
:10408800220065082000B500220064082000B40062
:1040980098311F20A031200033082300C7002000DA
:1040A80032082300C600200031082300C500200084
:1040B80030082300C4003E302000A3006C30A2006A
:1040C8003230A1005530A0003E30B3005330B2006A
:1040D800F130B1004230B000230047082000B7009B
:1040E800230046082000B600230045082000B5003C
:1040F800230044082000B40098311F20A03120007C
:104108003308A7003208A6003108A5003008A4002B
:10411800A531C425A031200023082300DF0020009A
:1041280022082300DE00200021082300DD002000F3
:1041380020082300DC003E302000A3008B30A200C2
:10414800A330A1000530A000230047082000B300D9
:10415800230046082000B200230045082000B100D3
:10416800230044082000B00023005F082000B700A7
:1041780023005E082000B60023005D082000B5007B
:1041880023005C082000B40098311F20A0312000D3
:10419800B131D1292000BF003008C4003108C50062
:1041A8003208C6003308C7003408C8003508C900FB
:1041B8003608CA003708CB00443086000030870034
:1041C800473FB800B81BE928EB280130EC2800303D
:1041D8002000B900BA013908C2003A08C3004208F1
:1041E80043040319F828F9281729C409C509C60979
:1041F800C709C809C909CA09CB09C40A031D17296F
:10420800C50A031D1729C60A031D1729C70A031D56
:104218001729C80A031D1729C90A031D1729CA0A1D
:10422800031D1729CB0A2400BD1B1B291C29202983
:10423800FD30BE05FF30BF053D08803A2000B800BC
:1042480080303802031D2B29013024003C0203185A
:104258002E292F29352901302000BD000030BE004D
:104268003D2924003D082000BE0024003C08200011
:10427800BD0024003B082000C10024003A082000AB
:10428800C00042084304031D4A294B295029240031
:104298003E1D4F2950295529FF302000C007FF3007
:1042A800C13D1F302000CC000030CD002500BF01EB
:1042B800C629FF302000CC07FF30CD3D0A30A000D2
:1042C800A101A201A301A401A501A601A701440817
:1042D800A8004508A9004608AA004708AB004808F6
:1042E800AC004908AD004A08AE004B08AF00B33136
:1042F800EB23A03120002108F4002008F300A031AE
:104308000420A0317308303E2000B8004C08A03EBD
:1043180086000230870038088100FF30BD07FF3073
:10432800BE3DFF30C007FF30C13D0A30A000A101EB
:10433800A201A301A401A501A601A7014408A800A0
:104348004508A9004608AA004708AB004808AC0081
:104358004908AD004A08AE004B08AF00B431D52477
:10436800A03120002008C4002108C5002208C6008A
:104378002308C7002408C8002508C9002608CA0061
:104388002708CB0020004D08803AB800803038025A
:10439800031DD02901304C02031CD329D429012A3A
:1043A80020004408450446044704480449044A04D4
:1043B8004B04031DE029E1295D293E08803AB80035
:1043C80080303802031DEA2901303D020318ED2927
:1043D800EE295D2920004108803AB8008030380273
:1043E800031DF82901304002031CFB29FC29012A7E
:1043F8002400BE18002A012A5D292000420843042F
:10440800031D072A082A0D2A24003E1D0C2A0D2AFE
:104418002A2AFF302000CC07FF30CD3D4208430454
:10442800031D172A182A1D2A2B30BB000030BC0098
:10443800212A2D30BB000030BC003B08B8004C08D6
:10444800A03E8600023087003808810020004C0812
:10445800A03EB8003808A4004108A6004008A500FE
:104468003F08BE31C826A03120002508B100240825
:10447800B0000800200059088039DA005A08E30023
:104488005935DA005A08EA00D81F4B2A4C2A4D2A17
:104498006A146A080319512A522A622A6A0A031DF1
:1044A800562A572A5F2A0030D9000030D800003039
:1044B800D7000030D600D817D9016A2A0030D900B1
:1044C8000030D8000030D7000030D60055088039B9
:1044D800DA005A08E3065535DA005A08EB00D41F0B
:1044E800762A772A782A6B146B0803197C2A7D2A86
:1044F8008D2A6B0A031D812A822A8A2A0030D50058
:104508000030D4000030D3000030D200D417D501D9
:10451800952A0030D5000030D4000030D300003098
:10452800D2005508540453045204031D9C2A9D2AA2
:10453800B62A0030D9000030D8000030D70000304B
:10454800D6008030D8047F30D9046308DA005A08CE
:10455800D9045908D5005808D4005708D30056087C
:10456800D200F12B6A08031DBA2ABB2AC42A0030DC
:10457800D5000030D4000030D3000030D200F12B39
:104588006A08DA00DB015B08DD006B085A02DC0010
:10459800031CDD035C087F3EE40000305D3DE50060
:1045A8005908E2005808E1005708E0005608DF0003
:1045B8000030D9000030D8000030D7000030D600D5
:1045C8000030E9000030E8000030E7000030E60085
:1045D800EB012C2B6B080319F22AF32A0D2B01305F
:1045E800DF35E00DE10DE20D890BF42A0130D635F7
:1045F800D70DD80DD90D890BFB2AE91F042B052BE4
:10460800062B56140130E635E70DE80DE90D890B48
:10461800072B55086202031D1B2B54086102031D5A
:104628001B2B53086002031D1B2B52085F02031C3F
:104638001E2B1F2B282B69175208DF025308E03B5B
:104648005408E13B5508E23B0130DA005A08EB0711
:104658001A306B02031C312B322BEE2A62086104DC
:1046680060045F040319392B3A2B532B6614532B20
:104678000130D635D70DD80DD90D890B3D2BE91F43
:10468800462B472B482B56140130E635E70DE80D2D
:10469800E90D890B492BFF30E407FF30E53DD81FB2
:1046A800562B572B3C2BEB01E91F5B2B5C2B782BF4
:1046B800FF306605DA00FF306705DB00FF3068056C
:1046C800DC007F306905DD005D085C045B045A048A
:1046D80003196F2B702B732BEB01EB0A782B561CED
:1046E800762B772B782B702B6B0803197C2B7D2B63
:1046F800A52B0130D6070030D73D0030D83D00301B
:10470800D93D591C882B892BA52B5608DA00570848
:10471800DB005808DC005908DD000130DE00DD3719
:10472800DC0CDB0CDA0CDE0B932B5D08D9005C0883
:10473800D8005B08D7005A08D6000130E4070030DB
:10474800E53D6508803ADA0080305A02031DAE2B39
:10475800FF306402031CB12BB22BBF2BFF302000AB
:10476800E4000030E5000030D9000030D800003007
:10477800D7000030D60020006508803ADA00803083
:104788005A02031DC92B013064020318CC2BCD2B10
:10479800D92B2000E401E5010030D9000030D80011
:1047A8000030D7000030D600E30120006408DA00AA
:1047B8005A08EA006A1CE12BE22BE42BD817E82BF5
:1047C8007F30DA005A08D8056A36DA005A08D90064
:1047D8006308DA005A08D904AD2A080021004B08FA
:1047E8002400C70021004A082400C6002100490807
:1047F8002400C500210048082400C40047082200FE
:10480800EB00240046082200EA00240045082200A4
:10481800E900240044082200E80021004F08240091
:10482800C70021004E082400C60021004D082400BE
:10483800C50021004C082400C40047082300BF001D
:10484800240046082300BE00240045082300BD00BC
:10485800240044082300BC00FF3022006805230020
:10486800E000FF30220069052300E100FF3022004C
:104878006A052300E2007F3022006B052300E30075
:10488800FF303C05D000FF303D05D100FF303E052C
:10489800D2007F303F05D30053085204510450041E
:1048A800031D572C582C632C3F302100CB0080303F
:1048B800CA000030C9000030C8008F31FF2F803097
:1048C80022006A063F3003196B0668046904031D59
:1048D8006E2C6F2C792C3F302100CB008030CA0021
:1048E8000030C9000030C800612C2300E31B882C6D
:1048F800013060020030613B8030623B7F30633BB7
:104908000318872C882C972C2300D31B962C013056
:1049180050020030513B8030523B7F30533B031CE8
:10492800962C972CCB2C21004F082000A3002100A7
:104938004E082000A20021004D082000A1002100FF
:104948004C082000A00021004B082000A7002100EF
:104958004A082000A600210049082000A5002100DF
:1049680048082000A400A531C425A331200023084D
:104978002100CB00200022082100CA0020002108C5
:104988002100C900200020082100C800612C003047
:104998002200DB000030DA000030D9000030D800F7
:1049A800EB1FD72CD82CB62D2300D31BE22C80303C
:1049B80052024B30533B031CE22CE32CED2C00300D
:1049C8002200DB000030DA000030D9000230D800C5
:1049D800B62D2300D31BF72C803052023F30533BB7
:1049E800031CF72CF82CB62D230050082100D0000A
:1049F800230051082100D100230052082100D200D1
:104A0800230053082100D3001730D400D337D20C29
:104A1800D10CD00CD40B0A2D813050072300D800BC
:104A2800FF302100513D2300D900FF302100523DC5
:104A38002300DA00FF302100533D2300DB0050083B
:104A48002100D000230051082100D1002300520882
:104A58002100D200230053082100D3002300580866
:104A6800173C890A21003C2DD337D20CD10CD00C2D
:104A7800890B382D53082300E70021005208230032
:104A8800E600210051082300E5002100500823001A
:104A9800E40064082100D000230065082100D1004B
:104AA800230066082100D200230067082100D300F4
:104AB80023005808173C890A2100662DD035D10DEE
:104AC800D20DD30D890B622D230053082100530604
:104AD800031D7E2D2300520821005206031D7E2D42
:104AE8002300510821005106031D7E2D2300500884
:104AF80021005006031D812D822DB62D0130230083
:104B080064052100D0000030230065052100D10094
:104B18000030230066052100D2000030230067051D
:104B28002100D3000230D4000030D5000030D60078
:104B38000030D7005008D4025108D53B5208D63B64
:104B48005308D73B57082200DB00210056082200F3
:104B5800DA00210055082200D9002100540822005B
:104B6800D800B62D8030230052067F300319530633
:104B780050045104031DC22DB531D62DB631392E3E
:104B8800200023088039A8002808F9002335A80048
:104B98002808FB00A21FD12DD22DD32D7B147B0812
:104BA8000319D72DD82DE82D7B0A031DDC2DDD2D0B
:104BB800E52D0030A3000030A2000030A100003035
:104BC800A000A217A301F02D0030A3000030A2001E
:104BD8000030A1000030A00027088039A80028086C
:104BE800FA007A0879060319FA2DFB2DFC2D79179E
:104BF8002735A8002808FA00A61F032E042E052E24
:104C08007A147A080319092E0A2E1A2E7A0A031D15
:104C18000E2E0F2E172E0030A7000030A6000030F1
:104C2800A5000030A400A617A701222E0030A70077
:104C38000030A6000030A5000030A4007B087A02EE
:104C48000318272E282E6C2E791F2B2E2C2E302E53
:104C58008030A8002808F9067B08A8002808FC006E
:104C68007A08A8002808FB007C08A8002808FA0091
:104C78002008A8002808FC002408A8002808A0008C
:104C88007C08A8002808A4002108A8002808FC001F
:104C98002508A8002808A1007C08A8002808A50065
:104CA8002208A8002808FC002608A8002808A20056
:104CB8007C08A8002808A6002308A8002808FC00EB
:104CC8002708A8002808A3007C08A8002808A7002F
:104CD800FC017A08A800A9012908AB007B08280272
:104CE800AA00031CAB032B08803AAC0080302C02CE
:104CF800031D802E1A302A02031C832E842EBE2EFA
:104D080020002308220421042004031D8C2E8E2E4B
:104D180001308F2E0030A8002808FC000030A300C6
:104D28000030A2000030A1000030A0007A08A800DE
:104D38002808FB00C42E7C1CA22EA32EAA2E7C368B
:104D480001382000A8002808FC00AC2E0310FC0C39
:104D58002000201CB02EB12EB22EFC170130A80066
:104D6800A337A20CA10CA00CA80BB42E0130A800EC
:104D78002808FB077A087B02031CC32EC42E9F2E2B
:104D8800791BC72EC82E022F7B08031DCC2ECD2ED3
:104D9800D72E00302000A3000030A2000030A10070
:104DA8000030A000FF2F20002408A0072508A13DFF
:104DB8002608A23D2708A33D231CE32EE42E8F2FAF
:104DC8007C1CE72EE82EEE2E7C360138A800280839
:104DD800FC00F02E0310FC0C201CF32EF42EF52EF4
:104DE800FC170130A800A337A20CA10CA00CA80B3B
:104DF800F72E0130A8002808FB078F2F2000230872
:104E0800803AA8002708803A2802031D152F260893
:104E18002202031D152F25082102031D152F240822
:104E280020020318182F192F512FFF30A800FF3028
:104E3800A900FF30AA00FF30AB0020082402AC0014
:104E48002108253BAD002208263BAE002308273B5E
:104E5800AF002C08A8072D08A93D2E08AA3D2F0849
:104E6800AB3D2B08A3002A08A2002908A1002808A6
:104E7800A0008030A8002808F906FC09FC0A7C0874
:104E8800031D472F482F592F0130A0070030A13D9F
:104E98000030A23D0030A33D592F2408A002250868
:104EA800A13B2608A23B2708A33B23082204210490
:104EB8002004031D602F612F8B2F7C08031D652F95
:104EC800662F8B2F0030A3000030A2000030A10015
:104ED8000030A000FF2F0130A035A10DA20DA30DB9
:104EE800890B702FFC1F792F7A2F7B2F20147C1CA5
:104EF8007E2F7F2F822F0314FC0D842F0310FC0DAF
:104F08007B080319882F892F8B2F0130FB02A21FE2
:104F18008E2F8F2F6F2FFA01FC1F932F942FA22F04
:104F28007C087F390319992F9A2F9D2FFA01FA0AC5
:104F3800A22F201CA02FA12FA22F9A2F7A08031985
:104F4800A62FA72FD42F0130A0070030A13D003095
:104F5800A23D0030A33D231CB22FB32FD42F20082D
:104F6800A8002108A9002208AA002308AB000130E4
:104F7800AC00AB37AA0CA90CA80CAC0BBD2F2B08A6
:104F8800A3002A08A2002908A1002808A0007B0A7B
:104F98000319CF2FD02FD42F0130A8002808FB07E2
:104FA8007B0A0319D82FD92FDE2F7B08031DDD2F8D
:104FB800DE2FEC2F0030A3000030A2000030A1004B
:104FC8000030A0007B08031DEA2FEB2FEC2FF9011E
:104FD8007B1CEF2FF02FF22FA217F62F7F30A8009F
:104FE8002808A2057B36A8002808A300F91FFD2F72
:104FF800FE2FFF2FA31708003308A7003208A600CA
:105008003108A5003008A400A531C425A831200026
:1050180023082200C300200022082200C20020002A
:1050280021082200C100200020082200C00023001F
:1050380047082000B300230046082000B2002300E0
:1050480045082000B100230044082000B0002300D8
:1050580047082000B700230046082000B6002300B8
:1050680045082000B500230044082000B40098310A
:105078001F20A83120003308EF003208EE00310865
:10508800ED003008EC003F30A3001930A200993041
:10509800A1009A30A000230047082000B300230095
:1050A80046082000B200230045082000B100230074
:1050B80044082000B000220043082000B700220066
:1050C80042082000B600220041082000B500220056
:1050D80040082000B40098311F20A8312000330870
:1050E800A7003208A6003108A5003008A400A531A1
:1050F800C425A831200023082100DC002000220854
:105108002100DB00200021082100DA00200020080F
:105118002100D90020006F08B3006E08B2006D08A6
:10512800B1006C08B00021005C082000B700210025
:105138005B082000B60021005A082000B5002100B5
:1051480059082000B40098311F20A8312000803170
:10515800092820004D08DD004C08DC004B08DB0066
:105168004A08DA004F08803AD00080305002031D08
:10517800BF2880304E02031CC228C32825297F304F
:105188002000B3000030B2000030B1000030B000A1
:105198005D08B7005C08B6005B08B5005A08B400A3
:1051A80098311F20A83120003308DD003208DC00C8
:1051B8003108DB003008DA008130CE07FF30CF3D00
:1051C8004F08803AD00080305002031DED2880300F
:1051D8004E02031CF028F12894297F302000B300E8
:1051E8000030B2000030B1000030B0005D08B700F8
:1051F8005C08B6005B08B5005A08B40098311F2057
:10520800A83120003308DD003208DC003108DB005B
:105218003008DA008130CE07FF30CF3D4F08803AA2
:10522800D00080305002031D1B2980304E02031C21
:105238001E291F2994297F302000CE000030CF007E
:10524800942920004F08803AD0007F305002031D77
:105258002F2982304E0203183229332994290C3021
:105268002000B3008030B2000030B1000030B00040
:105278005D08B7005C08B6005B08B5005A08B400C2
:1052880098311F20A83120003308DD003208DC00E7
:105298003108DB003008DA006630CE070030CF3D39
:1052A8004F08803AD0007F305002031D5D298230BC
:1052B8004E0203186029612994290C302000B3009C
:1052C8008030B2000030B1000030B0005D08B70097
:1052D8005C08B6005B08B5005A08B40098311F2076
:1052E800A83120003308DD003208DC003108DB007B
:1052F8003008DA006630CE070030CF3D4F08803ADC
:10530800D0007F305002031D8B2982304E020318D3
:105318008E298F29942982302000CE00FF30CF00BB
:1053280020004E087F3ED00000304F3DD10050088D
:10533800D2005108D300D401D5011730D235D30D8E
:10534800D40DD50D890BA2295508D9005408D800C9
:105358005308D7005208D6005D08B3005C08B200B5
:105368005B08B1005A08B0005908B7005808B600E1
:105378005708B5005608B40098311F20A8312000FE
:105388003308CD003208CC003108CB003008CA0001
:10539800080033082200E700200032082200E60057
:1053A800200031082200E500200030082200E40037
:1053B80067082300A700220066082300A600220031
:1053C80065082300A500220064082300A40027081C
:1053D8002400C700230026082400C600230025084F
:1053E8002400C500230024082400C4004708230023
:1053F800CB00240046082300CA00240045082300E7
:10540800C900240044082300C800003048052400CF
:10541800C400F030230049052400C500FF302300F4
:105428004A052400C600FF3023004B052400C700AE
:1054380047082300A700240046082300A6002400EC
:1054480045082300A500240044082300A4000030D8
:105458002100D000F030D100FF30D200FF30D3005F
:10546800230060082100D400230061082100D50032
:10547800230062082100D600230063082100D7001A
:105488000130D800D737D60CD50CD40CD80B462A07
:105498005408D0055508D1055608D2055708D30534
:1054A800003050042300C8000030210051042300BC
:1054B800C9000030210052042300CA002030210016
:1054C80053042300CB0048082100D00023004908DA
:1054D8002100D10023004A082100D20023004B08F4
:1054E8002100D300230058082100D40023005908C4
:1054F8002100D50023005A082100D60023005B08AC
:105508002100D7001530D435D50DD60DD70D890B10
:10551800872A5408D0075508D13D5608D23D570868
:10552800D33D003050072400C40000302100513D15
:105538002400C50040302100523D2400C600003040
:105548002100533D2400C70047082300A30024007E
:1055580046082300A200240045082300A1002400D7
:1055680044082300A00059088500580884008435A1
:10557800850D8435850D1A308407B830853D003F88
:105588002100D000013FD100023FD200033FD300E9
:1055980053082000CD00210052082000CC00210033
:1055A80051082000CB00210050082000CA00230029
:1055B80023082000D100230022082000D000230067
:1055C80021082000CF00230020082000CE00BD3194
:1055D8007F25A9312000BF317D2F71302000B30015
:1055E8004930B200F230B100CA30B000230043089D
:1055F8002000B700230042082000B600230041081D
:105608002000B500230040082000B40098311F2076
:10561800AA31200033082300DF00200032082300CD
:10562800DE00200031082300DD00200030082300C0
:10563800DC0071302000B3004930B200F230B10014
:10564800CA30B00023005F082000B70023005E08BE
:105658002000B60023005D082000B50023005C0888
:105668002000B40098311F20AA31200033082100FF
:10567800CB00200032082100CA0020003108210098
:10568800C900200030082100C8008F31FF2F2300F7
:10569800E31B592B083060020030613B8030623BCD
:1056A8003F30633B031C592B5B2B9A31762A23002E
:1056B800BF1B6D2B3F08031D6C2B3E08031D6C2B75
:1056C8003D08031D6C2B01303C0203186C2B6D2B1D
:1056D800C62B0D302000B300A230B2004230B1001A
:1056E8006030B000230043082000B70023004208C0
:1056F8002000B600230041082000B5002300400820
:105708002000B40098311F20AA312000330823005C
:10571800DF00200032082300DE00200031082300CB
:10572800DD00200030082300DC000D302000B3002D
:10573800A230B2004230B1006030B00023005F08F0
:105748002000B70023005E082000B60023005D0893
:105758002000B50023005C082000B40098311F2009
:10576800AA31200033082100CB0020003208210094
:10577800CA00200031082100C9002000300821009B
:10578800C800492B71302000B3004930B200F23014
:10579800B100CA30B000230043082000B70023003E
:1057A80042082000B600230041082000B50023006D
:1057B80040082000B40098311F20AA312000330887
:1057C8002300DF00200032082300DE00200031081B
:1057D8002300DD00200030082300DC0071302000A9
:1057E800B3004930B200F230B100CA30B000230033
:1057F8005F082000B70023005E082000B6002300E1
:105808005D082000B50023005C082000B400983132
:105818001F20AA31200033082100CB0020003208C5
:105828002100CA00200031082100C90020003008EA
:105838002100C800492B433023006706640465042F
:105848006604031D282C292CDB2C23005708200074
:10585800CD00230056082000CC0023005508200066
:10586800CB00230054082000CA0023006F08200042
:10587800D10023006E082000D00023006D0820000E
:10588800CF0023006C082000CE00BD317F25AC314D
:1058980020004D08D5004C08D4004B08D3004A0816
:1058A800D2003330A3003830A200AA30A1003C3027
:1058B800A00022006F082000A70022006E08200028
:1058C800A60022006D082000A50022006C08200018
:1058D800A400A531C425AC3120002308D900220832
:1058E800D8002108D7002008D600B031B720AC3145
:1058F80003187F2C812C8831B92871302000B3001F
:105908004930B200F230B100CA30B0002300430879
:105918002000B700230042082000B60023004108F9
:105928002000B500230040082000B40098311F2053
:10593800AC31200033082300DF00200032082300A8
:10594800DE00200031082300DD002000300823009D
:10595800DC0071302000B3004930B200F230B100F1
:10596800CA30B00023005F082000B70023005E089B
:105978002000B60023005D082000B50023005C0865
:105988002000B40098311F20AC31200033082100DA
:10599800CB00200032082100CA0020003108210075
:1059A800C900200030082100C8008731E92FFF30E6
:1059B800230064052100D000FF3023006505210085
:1059C800D100FF30230066052100D2007F3023007C
:1059D80067052100D300D31BFC2C01305002003096
:1059E800513B1630523B4330533B031CFC2CFE2CDE
:1059F800883111280D302000B300A230B2004230A7
:105A0800B1006030B000230043082000B700230035
:105A180042082000B600230041082000B5002300FA
:105A280040082000B40098311F20AC312000330812
:105A38002300DF00200032082300DE0020003108A8
:105A48002300DD00200030082300DC000D3020009A
:105A5800B300A230B2004230B1006030B000230081
:105A68005F082000B70023005E082000B60023006E
:105A78005D082000B50023005C082000B4009831C0
:105A88001F20AC31200033082100CB002000320851
:105A98002100CA00200031082100C9002000300878
:105AA8002100C800D92C2000DD004E08860087019F
:105AB800403FD000413FD100500884005108850084
:105AC8001200253A031D692D6A2D822E4E08860084
:105AD80087010130810741310318810A2400BA0186
