:10000000803102288731DD2F080064008001013132
:10001000890B06280034F1007108F000F00DF00D96
:1000200021001D087006033970069D001D1408008C
:100030002200BC00BA01BB01210033082200D0001D
:10004000210032082200CF00210031082200CE001A
:10005000210030082200CD0050082000B800220006
:100060004F082000B70022004E082000B6002200F2
:100070004D082000B5000030BC000030BB0000304F
:10008000BA000030B9009C31362480310318492869
:100090004A28632801302200BA000030BB00500813
:1000A000F3004F08F2004E08F1004D08F0009231C5
:1000B0002022803173082200D0007208CF0071081E
:1000C000CE007008CD002200D301D40121006908C0
:1000D0002200C000210068082200BF003A083B044B
:1000E000031D73287428792821006C1D782879282D
:1000F000982822003A083B04031D7F288028852881
:100100002B30A0000030A10089282D30A000003045
:10011000A10020082100B50035082400A00001300E
:100120002200D3070030D43DFF30BF07FF30C03D71
:1001300022005008F3004F08F2004E08F1004D086D
:10014000F0009B313123803170037104031DA92815
:10015000AA28002921003408BF3EB500FF3003184B
:100160000030B600003036021A3003193502031C85
:10017000BA28BC280130BD280030B700B8013708C4
:100180002200A200210038082200A3002208230434
:100190000319CB28CC28D6280C30F000A830F10069
:1001A0005308203E9831B0208031DF281430F00011
:1001B000A830F1005308203E9831B0208031FD3046
:1001C0002200BF07FF30C03D20302100B5003508B8
:1001D0002000A400220040082000A60022003F08C2
:1001E0002000A50022003C08883104208031200036
:1001F00025082100B100200024082100B000DC2FD8
:1002000022005008F3004F08F2004E08F1004D089C
:10021000F0009B313123803170087104031D1129D6
:100220001229682921003408BF3EB500FF300318A9
:100230000030B600003036021A3003193502031CB4
:1002400022292429013025290030B700B8013708B8
:100250002200A400210038082200A500240825045B
:100260000319332934293E291030F000A830F10059
:100270005308203E9831B020803147291830F000D3
:10028000A830F1005308203E9831B0208031FD3075
:100290002200BF07FF30C03D20302100B5003508E7
:1002A0002000A400220040082000A60022003F08F1
:1002B0002000A50022003C08883104208031200065
:1002C00025082100B100200024082100B000DC2F07
:1002D0003F302200D8008030D7000030D6000030F8
:1002E000D500D101D2015008F3004F08F2004E08AA
:1002F000F1004D08F0000030F7000030F60000304B
:10030000F5000030F4009931E82180310318892983
:100310008A294E2ABB2941302000A3002030A200A8
:100320000030A1000030A000220058082000A700E3
:10033000220057082000A600220056082000A50031
:10034000220055082000A4008A3195228031200027
:1003500023082200D800200022082200D700200015
:1003600021082200D600200020082200D5000130FC
:10037000D1070030D23D220050082000B8002200F2
:100380004F082000B70022004E082000B6002200CF
:100390004D082000B5004130A3002030A2000030FD
:1003A000A1000030A000220058082000A700220071
:1003B00057082000A600220056082000A5002200B1
:1003C00055082000A4008A3195228031200023089E
:1003D000BC002208BB002108BA002008B9009C31EB
:1003E000362480310318F529F6298B29272A413034
:1003F0002000D4002030D3000030D2000030D100E3
:10040000220058082000D800220057082000D700FA
:10041000220056082000D600220055082000D500F2
:1004200096314C268031200054082200D80020004C
:1004300053082200D700200052082200D6002000D6
:1004400051082200D500FF30D107FF30D23D2200F5
:1004500050082000B80022004F082000B7002200FA
:100460004E082000B60022004D082000B5002200F2
:1004700058082000BC00220057082000BB002200C2
:1004800056082000BA00220055082000B9009C310F
:1004900036248031031C4D2A4E2AF72921003408C6
:1004A000B500B6013508F6003608F70099313A2153
:1004B000803176082100B70037082200C2004208C8
:1004C0002100B50035082200C10067304206031D37
:1004D0006A2A6B2A922A21006A086B04031D712A7A
:1004E000722A762A0130EA000030EB006B08803A6D
:1004F000B50080303502031D7F2A01306A020318DF
:10050000822A832A892A06302200BD000030BE00DC
:10051000982A21006B082200BE0021006A082200F0
:10052000BD00982A2100EB1B962A972A832A892A44
:1005300067304206031D9D2A9E2AD62A5208803A19
:100540002100B5007F303502031DA92AFC302200AE
:100550005102031CAC2AAD2AD02A22003D08FF3EDE
:100560002100B500FF3022003E3D2100B6003608D4
:10057000803AB70022005208803A21003702031D5A
:10058000C52A2200510821003502031CC82AC92AA5
:10059000D02A66302100B50035082200C100D62AD5
:1005A00065302100B50035082200C1003E08B300C7
:1005B0003D08B20067304206031DDF2AE02AEA2A1E
:1005C00066304106031DE52AE62AEE2AD21FE92AF3
:1005D000EA2AEE2A0130B2070030B33D6630410608
:1005E000031DF32AF42A0C2BD21FF72AF82A022B18
:1005F0003F30D8008030D7000030D6000030D50022
:10060000D101D201673042060319072B082B0C2BAE
:100610005108B2075208B33DCB01CC015008C600C7
:100620004F08C5004E08C4004D08C3005808B70065
:100630005708B6005608B5005508B400F62B22003E
:1006400058082000D400220057082000D3002200C0
:1006500056082000D200220055082000D1002200B8
:1006600046082000D800220045082000D7002200BC
:1006700044082000D600220043082000D50096310F
:100680004C26803120005408EE005308ED0052083B
:10069000EC005108EB009F310627803120006E08E6
:1006A0002200CA0020006D082200C90020006C084A
:1006B0002200C80020006B082200C7004A08200062
:1006C000EE00220049082000ED002200480820002A
:1006D000EC00220047082000EB009B31B023803162
:1006E00020006C082200B90020006B082200B8002E
:1006F0004A082000A700220049082000A600220086
:1007000048082000A500220047082000A40022007D
:1007100058082000A300220057082000A200220051
:1007200056082000A100220055082000A0008A31B0
:100730009522803120002308CC002208CB0021081C
:10074000CA002008C900220046082000D00022006C
:1007500045082000CF00220044082000CE002200DF
:1007600043082000CD0098316F20803120004C08D4
:100770002200C60020004B082200C50020004A08C5
:100780002200C400200049082200C300413020009C
:10079000D4002030D3000030D2000030D10022003D
:1007A00058082000D800220057082000D700220057
:1007B00056082000D600220055082000D5009631AA
:1007C0004C268031200054082200D8002000530815
:1007D0002200D700200052082200D6002000510835
:1007E0002200D5000130CB070030CC3D4C08803AC8
:1007F0002100B50022003308803A21003502031D94
:10080000042C220032084B02031C072C082C1F2B3F
:1008100040302000A300A030A2000030A100003032
:10082000A000220058082000A7002200570820003E
:10083000A600220056082000A5002200550820002E
:10084000A4008A3195228031200023082200CA00AA
:10085000200022082200C900200021082200C80030
:10086000200020082200C70046082000B80022000F
:1008700045082000B700220044082000B6002200EE
:1008800043082000B50022004A082000BC002200D6
:1008900049082000BB00220048082000BA002200BE
:1008A00047082000B9009C31362480310318592CA8
:1008B0005A2C642C00302200CA000030C9000030DD
:1008C000C8000030C700892C22004608F300450804
:1008D000F2004408F1004308F0004A08F700490814
:1008E000F6004808F5004708F4009931E821803106
:1008F000031C7B2C7C2C892C22003818802C812C0A
:10090000892C0030CA000030C9000030C800003017
:10091000C70022004A082000B80022004908200031
:10092000B700220048082000B60022004708200037
:10093000B500220050082000BC0022004F08200013
:10094000BB0022004E082000BA0022004D08200003
:10095000B90088315D208031200038082200C600AF
:10096000200037082200C500200036082200C400FD
:10097000200035082200C30046082000B8002200ED
:1009800045082000B700220044082000B6002200DD
:1009900043082000B5004130A3002030A200003001
:1009A000A1000030A000220037082000A70022008C
:1009B00036082000A600220035082000A5002200ED
:1009C00034082000A4008A319522803120002308B9
:1009D000BC002208BB002108BA002008B9009C31E5
:1009E00036248031031CF52CF62C312D01302200E9
:1009F000D1070030D23D41302000A3002030A200BA
:100A00000030A1000030A000220037082000A7001D
:100A1000220036082000A600220035082000A5008C
:100A2000220034082000A4008A3195228031200061
:100A300023082200B700200022082200B600200070
:100A400021082200B500200020082200B4006630F2
:100A50004106031D2C2D2D2D312D0130B207003004
:100A6000B33D22003708D8003608D7003508D60035
:100A70003408D5006530410603193F2D402D452D22
:100A80005208B1005108B000472DB001B101AE01CC
:100A9000AF01AC01AD01CB01CC019E2E2200580864
:100AA0002000D400220057082000D300220056085E
:100AB0002000D200220055082000D1002200460864
:100AC0002000D800220045082000D700220044085A
:100AD0002000D600220043082000D50096314C2685
:100AE000803120005408EE005308ED005208EC005D
:100AF0005108EB009F310627803120006E0822004C
:100B0000CA0020006D082200C90020006C082200E5
:100B1000C80020006B082200C7004A082000EE0031
:100B2000220049082000ED00220048082000EC00C7
:100B3000220047082000EB009B31B02380312000C9
:100B40006C082200B90020006B082200B8002100C8
:100B50006C1AAB2DAC2DC22D220038083904031DB0
:100B6000B22DB32DC22D67304206031DB82DB92D0D
:100B7000C22DB11FBC2DBD2DC22D0130AC070030E0
:100B8000AD3D1C2E22002E082F04031DC82DC92D9B
:100B9000002EB11FCC2DCD2D002E2E302100B50002
:100BA00022005308203E86000230870021003508CD
:100BB000810001302200D3070030D43DFF30BF0751
:100BC000FF30C03D0130AE000030AF00002E3030AD
:100BD0002100B50022005308203E86000230870025
:100BE00021003508810001302200D3070030D43DB8
:100BF000FF30BF07FF30C03DFF30AC07FF30AD3DD9
:100C00002C082D04031D052E062EE72D3808303E36
:100C10002100B50022005308203E860002308700E4
:100C200021003508810001302200D3070030D43D77
:100C3000FF30BF07FF30C03D4A082000A700220058
:100C400049082000A600220048082000A500220034
:100C500047082000A400220058082000A30022001A
:100C600057082000A200220056082000A100220000
:100C700055082000A0008A319522803120002308E9
:100C8000CC002208CB002108CA002008C90022009D
:100C900046082000D000220045082000CF00220096
:100CA00044082000CE00220043082000CD009831E7
:100CB0006F20803120004C082200C60020004B0825
:100CC0002200C50020004A082200C4002000490874
:100CD0002200C30041302000D4002030D300003077
:100CE000D2000030D100220058082000D800220095
:100CF00057082000D700220056082000D600220006
:100D000055082000D50096314C268031200054082B
:100D10002200D800200053082200D70020005208EB
:100D20002200D600200051082200D500FF30B00775
:100D3000FF30B13D0130CB070030CC3D4C08803A4C
:100D40002100B50022003308803A21003502031D3E
:100D5000AC2E220032084B020318AF2EB02EC02E4C
:100D600022005408803A2100B50080303502031D6E
:100D7000BC2E4B3022005302031CBF2EC02E4E2D22
:100D800022002E082F04031DC62EC72EDC2E2100A4
:100D90006C1ECB2ECC2EDC2E2E30B500220053083C
:100DA000203E860002308700210035088100013096
:100DB0002200D3070030D43D22005308203E860095
:100DC00002308700810165304106031DE82EE92EBF
:100DD000C12F4F30CB000030CC004B08203E8600A6
:100DE000023087008101BA01BB01D21FF82EF92E13
:100DF000022F0130BA000030BB00D109D209D10A5C
:100E00000319D20A0230BD000030BE003D2FFF3072
:100E10002200CB07FF30CC3D0A30F0000030F1005B
:100E20005208F3005108F2009A318622803170088E
:100E3000303E2100B50022004B08203E86000230E3
:100E400087002100350881000A30F0000030F100F1
:100E500022005208F3005108F20092312B22803117
:100E600071082200D2007008D100FF30BD07FF30AA
:100E7000BE3DFF30BF07FF30C03D51085204031D87
:100E8000422F432F072F3E08803A2100B5008030C3
:100E90003502031D4E2F013022003D020318512F51
:100EA000522F072FFF302200CB07FF30CC3D3A08EE
:100EB0003B04031D5C2F5D2F622F2B30A6000030FA
:100EC000A700662F2D30A6000030A70026082100BD
:100ED000B50022004B08203E86000230870021002A
:100EE00035088100FF302200BF07FF30C03DFF30D2
:100EF000CB07FF30CC3D21003408BF3EB500FF30AA
:100F000003180030B600003036021A3003193502DB
:100F1000031C8B2F8D2F01308E2F0030B700B801AE
:100F200037082200AA00210038082200AB002A0856
:100F30002B04031D9C2F9D2FA22F6530A80000308D
:100F4000A900A62F4530A8000030A90028082100DC
:100F5000B50022004B08203E8600023087002100A9
:100F600035088100FF302200BF07FF30C03D4B082D
:100F7000203EF0000230F1005308203E9831B020AE
:100F8000803120302100B50035082000A400220067
:100F900040082000A60022003F082000A5002200F3
:100FA0003C08883104208031200025082100B10050
:100FB000200024082100B0000800E8308400003040
:100FC000850007308031052087316430840001308E
:100FD00085000C30803105208731C4308400013019
:100FE00085000C30803105208731203084000230AC
:100FF00085005030803105208731200093318B2BC4
:1010000016302100970008002000AB0021006C1C66
:101010000A280B28142820002B08FC007C08F80064
:10102000240899315F2188312000A61B182819282F
:101030001E282608AA002508A9002028A901AA011F
:10104000A701A80134282030F0000030F100200072
:101050002B08FC007C08F2009A31362288310130DE
:101060002000A7070030A83D2808803AFC002A0885
:10107000803A7C02031D3E2829082702031C4128D0
:101080004228232821006C18462847285028200091
:101090002B08FC007C08F800240899315F21883176
:1010A0002000240898313620883120002908700754
:1010B000A4002A08713DA5000800200038088039E6
:1010C000BD003D08C5003835BD003D08C700B71F4D
:1010D0006A286B286C284714470803197028712860
:1010E0008128470A031D752876287E280030B8001D
:1010F0000030B7000030B6000030B500B717B801B7
:1011000089280030B8000030B7000030B600003049
:10111000B5003C088039BD003D08C60046084506BC
:10112000031993289428952845173C35BD003D08A0
:10113000C600BB1F9C289D289E28461446080319FC
:10114000A228A328B328460A031DA728A828B02848
:101150000030BC000030BB000030BA000030B900E5
:10116000BB17BC01BB280030BC000030BB00003006
:10117000BA000030B900470846020318C028C12849
:101180000529451FC428C528C9288030BD003D0851
:10119000C5064708BD003D08C8004608BD003D081B
:1011A000C7004808BD003D08C6003508BD003D0821
:1011B000C8003908BD003D08B5004808BD003D081D
:1011C000B9003608BD003D08C8003A08BD003D081A
:1011D000B6004808BD003D08BA003708BD003D080C
:1011E000C8003B08BD003D08B7004808BD003D08E9
:1011F000BB003808BD003D08C8003C08BD003D08E4
:10120000B8004808BD003D08BC00C8014608BD0044
:10121000BE013E08C00047083D02BF00031CC003DA
:101220004008803AC10080304102031D19291A305C
:101230003F02031C1C291D295529200038083704AA
:1012400036043504031D25292729013028290030BB
:10125000BD003D08C8000030B8000030B7000030C5
:10126000B6000030B5004608BD003D08C7005C2947
:10127000481C3B293C29422948360138BD003D081D
:10128000C80044290310C80C351C4729482949299E
:10129000C8170130BD00B837B70CB60CB50CBD0B84
:1012A0004B290130BD003D08C70720004608470212
:1012B000031C5B295C293829451B5F296029982973
:1012C0004708031D642965296E290030B8000030E5
:1012D000B7000030B6000030B500942A3908B507D1
:1012E0003A08B63D3B08B73D3C08B83D381C792963
:1012F0007A29242A481C7D297E29842948360138E8
:10130000BD003D08C80086290310C80C351C89297A
:101310008A298B29C8170130BD00B837B70CB60C25
:10132000B50CBD0B8D290130BD003D08C707242A2F
:101330003808803ABD003C08803A3D02031DAA29C6
:101340003B083702031DAA293A083602031DAA29C1
:10135000390835020318AD29AE29E629FF30BD0052
:10136000FF30BE00FF30BF00FF30C000350839023B
:10137000C10036083A3BC20037083B3BC30038087F
:101380003C3BC4004108BD074208BE3D4308BF3D89
:101390004408C03D4008B8003F08B7003E08B6000A
:1013A0003D08B5008030BD003D08C506C809C80A23
:1013B0004808031DDC29DD29EE290130B50700307E
:1013C000B63D0030B73D0030B83DEE293908B502D2
:1013D0003A08B63B3B08B73B3C08B83B38083704F3
:1013E00036043504031DF529F629202A4808031D73
:1013F000FA29FB29202A0030B8000030B70000305D
:10140000B6000030B500942A0130B535B60DB70DE1
:10141000B80D890B052AC81F0E2A0F2A102A351469
:10142000481C132A142A172A0314C80D192A03105A
:10143000C80D470803191D2A1E2A202A0130C70299
:10144000B71F232A242A042AC601C81F282A292AAA
:10145000372A48087F3903192E2A2F2A322AC60133
:10146000C60A372A351C352A362A372A2F2A460833
:1014700003193B2A3C2A692A0130B5070030B63DE2
:101480000030B73D0030B83D381C472A482A692A49
:101490003508BD003608BE003708BF003808C00058
:1014A0000130C100C037BF0CBE0CBD0CC10B522AAD
:1014B0004008B8003F08B7003E08B6003D08B50038
:1014C000470A0319642A652A692A0130BD003D08CC
:1014D000C707470A03196D2A6E2A732A4708031D96
:1014E000722A732A812A0030B8000030B700003019
:1014F000B6000030B5004708031D7F2A802A812AE4
:10150000C501471C842A852A872AB7178B2A7F3072
:10151000BD003D08B7054736BD003D08B800C51FF2
:10152000922A932A942AB8170800200023088039A9
:10153000F9007908A8002335F9007908AE00A21F48
:10154000A22AA32AA42A2E142E080319A82AA92AFB
:10155000B82A2E0A031DAD2AAE2AB62A0030A300EF
:101560000030A2000030A1000030A000A217C02A65
:101570000030A3000030A2000030A1000030A00025
:1015800027088039F9007908A8062735F900790875
:10159000AD00A61FCC2ACD2ACE2A2D142D08031962
:1015A000D22AD32AE22A2D0A031DD72AD82AE02AD2
:1015B0000030A7000030A6000030A5000030A400D5
:1015C000A617EA2A0030A7000030A6000030A500C8
:1015D0000030A4002D080319EE2AEF2AF42A2E0861
:1015E000031DF32AF42AFD2A0030A3000030A200D4
:1015F0000030A1000030A000EB2C2008F900790891
:10160000F00026089831F3208A3171082000B400D8
:101610007008B3003308F900FA01FB01FC017C08F3
:10162000AC007B08AB007A08AA007908A90034084E
:10163000F900FA01FB01FC017C08B2007B08B10053
:101640007A08B0007908AF002108F9007908F000A5
:1016500025089831F3208A3171082000B400700801
:10166000B3003308F900FA01FB01FC017908A9076E
:101670007A08AA3D7B08AB3D7C08AC3D3408F900F4
:10168000FA01FB01FC017908AF077A08B03D7B083D
:10169000B13D7C08B23D2208F9007908F000240829
:1016A0009831F3208A3171082000B4007008B3002B
:1016B0003308F900FA01FB01FC017908A9077A084F
:1016C000AA3D7B08AB3D7C08AC3D3408F900FA012B
:1016D000FB01FC017908AF077A08B03D7B08B13DFA
:1016E0007C08B23D0830A935AA0DAB0DAC0D890BB5
:1016F000732B2108F9007908F00024089831F320B1
:101700008A3171082000B4007008B3003308A907BB
:101710003408AA3D0030AB3DAC3D2008F900790803
:10172000F00025089831F3208A3171082000B400B8
:101730007008B3003308A9073408AA3D0030AB3D58
:10174000AC3D0830A935AA0DAB0DAC0D890BA22B11
:101750002008F9007908F00024089831F3208A3134
:1017600071082000B4007008B3003308A9073408DA
:10177000AA3D0030AB3DAC3D2108F9007908F000EE
:1017800026089831F3208A3171082000B4007008CF
:10179000B3003308AF073408B03D0030B13DB23D6F
:1017A0002208F9007908F00025089831F3208A31E1
:1017B00071082000B4007008B3003308AF07340884
:1017C000B03D0030B13DB23D2208F9007908F0008B
:1017D00026089831F3208A3171082000B40070087F
:1017E000B3003308F9003408FA00FB01FC010830AB
:1017F000F935FA0DFB0DFC0D890BF82B7908AF07B5
:101800007A08B03D7B08B13D7C08B23D2908F9005B
:101810002A08FA002B08FB002C08FC001830FC36C4
:10182000FB0CFA0CF90C890B0F2C7908AF077A081E
:10183000B03D7B08B13D7C08B23D0830A935AA0D0A
:10184000AB0DAC0D890B1E2C2E082D07F900FA01EB
:10185000FA0D7908823EB300FF307A3DB400472C80
:101860000130AF35B00DB10DB20D890B312CAC1F6D
:101870003A2C3B2C3C2C2F140130A935AA0DAB0D72
:10188000AC0D890B3D2CFF30B307FF30B43DB11FC9
:101890004A2C4B2C302CAD01AC1F4F2C502C6C2CF7
:1018A000FF302905F900FF302A05FA00FF302B052B
:1018B000FB007F302C05FC007C087B047A04790453
:1018C0000319632C642C672CAD01AD0A6C2C2F1C02
:1018D0006A2C6B2C6C2C642C2D080319702C712C29
:1018E000992C0130AF070030B03D0030B13D0030E1
:1018F000B23D321C7C2C7D2C992C2F08F90030082D
:10190000FA003108FB003208FC000130FD00FC3712
:10191000FB0CFA0CF90CFD0B872C7C08B2007B0841
:10192000B1007A08B0007908AF000130B307003089
:10193000B43D3408803AF90080307902031DA22CAE
:10194000FF303302031CA52CA62CB02C7F302000C6
:10195000B2008030B1000030B0000030AF00DF2CAA
:1019600020003408803AF90080307902031DBA2C37
:10197000013033020318BD2CBE2CC92C00302000CE
:10198000B2000030B1000030B0000030AF00A8015C
:10199000DF2C20003308F9007908AE00FF30AF05D6
:1019A000FF30B0057F30B1050030B2052E1CD92CB8
:1019B000DA2CDB2CB1172E36F9007908B200280892
:1019C000F9007908B2043208A3003108A2003008F7
:1019D000A1002F08A00008002100D70039088600C8
:1019E0008701403FBB00413FBC003B0884003C08EE
:1019F00085001200253A031DFE2CFF2CDC2F390830
:101A0000860087010130810741310318810AE8010E
:101A1000E901EC01ED01FF30EA00FF30EB0039088D
:101A200086008701403FBB00413FBC003B0884006B
:101A30003C08850012002A3A031D1F2D202D402D41
:101A40003908860087010130810741310318810A76
:101A50003A088600870101088400013085000230C1
:101A60008107003FE800013FE900E91F382D392DCB
:101A7000812D6C14E809E909E80A0319E90A812DA6
:101A8000390886008701403FF600413FF7009D314D
:101A90006D258C3177082100E9007608E800582D83
:101AA0003908860087010130810741310318810A16
:101AB000390886008701403FBB00413FBC003B081E
:101AC00084003C0885000008D03EBD00FF300318AC
:101AD0000030BE0000303E020A3003193D02031CF4
:101AE000722D742D0130752D0030BF00C0013F08EC
:101AF000C9004008CA0049084A04031D802D812DF1
:101B0000502D390886008701403FBB00413FBC0093
:101B10003B0884003C08850012002E3A031D912DDD
:101B2000922D042EEA01EB0139088600870101306D
:101B3000810741310318810A390886008701403F37
:101B4000BB00413FBC003B0884003C0885001200FC
:101B50002A3A031DAC2DAD2DC32D3908860087010F
:101B60000130810741310318810A3A088600870154
:101B7000010884000130850002308107003FEA003F
:101B8000013FEB00042E390886008701403FF60034
:101B9000413FF7009D316D258C3177082100EB0026
:101BA0007608EA00DB2D39088600870101308107BD
:101BB00041310318810A390886008701403FBB0084
:101BC000413FBC003B0884003C0885000008D03E33
:101BD000BD00FF3003180030BE0000303E020A3066
:101BE00003193D02031CF52DF72D0130F82D0030AF
:101BF000BF00C0013F08CB004008CC004B084C049C
:101C0000031D032E042ED32D390886008701403F83
:101C1000BB00413FBC003B0884003C088500000835
:101C2000BD00BE013D08F6003E08F70099313A219B
:101C30008C3176082100BF003F08D30053080319F8
:101C4000222E232E622E390886008701403FBB00DA
:101C5000413FBC0001303B0784003C0803183C0AAC
:101C600085000008BD00BE013D08F6003E08F700F3
:101C700099313A218C3176082100BF003F08D40009
:101C800054080319442E452E622E39088600870118
:101C9000403FBB00413FBC0002303B0784003C0892
:101CA00003183C0A85000008BD00BE013D08F6008F
:101CB0003E08F70099313A218C3176082100BF00A7
:101CC0003F08D500390886008701403FBB00413FEF
:101CD000BC003B0884003C0885001200643A0319EC
:101CE000722E732E842E390886008701403FBB0078
:101CF000413FBC003B0884003C0885001200693A63
:101D0000031D832E842ED32E3908860087010130CF
:101D1000810741310318810A3A08860087010108CA
:101D200084000130850002308107003FBB00013F85
:101D3000BC003B08C1003C08C200890D893B8909F1
:101D4000C300C400C500C600C700C8004108200089
:101D5000B000210042082000B1002100430820000B
:101D6000B200210044082000B300210045082000F3
:101D7000B400210046082000B500210047082000DB
:101D8000B600210048082000B70021005708943110
:101D9000DC248C31200031082100BA0020003008FA
:101DA0002100B900FF2F66305306031DD82ED92E0F
:101DB000172F390886008701403FBB00413FBC0018
:101DC0003B0884003C0885000008BD003D08D600A3
:101DD0003908860087010130810741310318810AE3
:101DE0003A0886008701010884000130850004302C
:101DF0008107003FCF00013FD000023FD100033FE9
:101E0000D2005208B3005108B2005008B1004F0888
:101E1000B0005608BB003B08B400570880311820BA
:101E20008C3121003108BA003008B900FF2F1C3076
:101E3000F000A830F1000230F2000030F300D3309F
:101E40009A31D9228C3170087104031D282F292F53
:101E5000A62F2100390886008701403FBB00413F83
:101E6000BC0001303B0784003C0803183C0A850095
:101E70000008BD003D08D600390886008701403FB4
:101E8000BB00413FBC003B0884003C0885000008C3
:101E9000BF3EBD00FF3003180030BE0000303E02E0
:101EA0001A3003193D02031C562F582F0130592FA9
:101EB0000030BF00C0013F08CD004008CE004D08F3
:101EC0004E040319642F652F772F3A088600870187
:101ED000010884000130850004308107003FCF00F5
:101EE000013FD000023FD100033FD200882F3A08C3
:101EF00086008701010884000130850004308107D5
:101F0000003FCF00013FD000023FD100033FD2008D
:101F10003908860087010230810741310318810AA0
:101F20005208B3005108B2005008B1004F08B00089
:101F30005608BB003B08B4005708803118208C318C
:101F400021003108BA003008B900FF2F21003908FC
:101F500086008701403FBB00413FBC003B08840036
:101F60003C0885001200253A031DB72FB82FD12F4A
:101F70003908860087010130810741310318810A41
:101F80002530F0000030F1005708BB003B08F2009C
:101F90009A3136228C3101302100B9000030BA006C
:101FA000FF2F39088600870101308107413103186E
:101FB000810AB901BA01FF2F390886008701403F25
:101FC000BB00413FBC003B0884003C088500000882
:101FD000BD00BE013D08F0003E08F1005708BF00FB
:101FE0003F08F2009A3136228C31210039088600F0
:101FF00087010130810741310318810ACB2F080086
:1020000043340134473401344C3401345034013406
:1020100055340134593401345E34013463340134AD
:10202000673401346C340134713401347634013452
:102030007B34013480340134853401348B340134F1
:1020400090340134953401349B340134A03401348C
:10205000A6340134AC340134B2340134B734013421
:10206000BD340134C3340134C9340134D0340134B3
:10207000D6340134DC340134E3340134E93401343E
:10208000F0340134F6340134FD34013404340234C4
:102090000B34023412340234193402342134023441
:1020A000283402342F340234373402343F340234BB
:1020B000463402344E340234563402345E34023430
:1020C000663402346F34023477340234803402349C
:1020D00088340234913402349A340234A334023402
:1020E000AC340234B5340234BF340234C834023460
:1020F000D2340234DB340234E5340234EF340234B7
:10210000F9340234043403340E3403341934033400
:10211000233403342E340334393403344434033445
:10212000503403345B34033467340334733403347E
:102130007E3403348B34033497340334A3340334B0
:10214000B0340334BD340334C9340334D7340334D6
:10215000E4340334F1340334FF3403340D340434F1
:102160001B340434293404343734043446340434FE
:102170005534043464340434733404348234043401
:1021800092340434A1340434B1340434C2340434F9
:10219000D2340434E3340434F434043405340534E0
:1021A00016340534283405343A3405344C340534B7
:1021B0005E34053470340534833405349634053484
:1021C000AA340534BD340534D1340534E53405343E
:1021D000FA3405340E3406342334063438340634E5
:1021E0004E340634643406347A340634903406347B
:1021F000A7340634BE340634D5340634ED34063400
:10220000053407341D340734353407344E3407346D
:1022100068340734813407349B340734B5340734C9
:10222000D0340734EB34073407340834223408340C
:102230003E3408345B340834783408349534083438
:10224000B3340834D1340834EF3408340E3409344C
:102250002D3409344D3409346D3409348E34093445
:10226000AF340934D0340934F234093415340A3423
:1022700038340A345B340A347F340A34A3340A34E1
:10228000C8340A34ED340A3413340B3439340B3483
:1022900060340B3487340B34AF340B34D7340B3405
:1022A00000340C342A340C3454340C347E340C3462
:1022B000AA340C34D5340C3402340D342F340D349C
:1022C0005C340D348A340D34B9340D34E9340D34B2
:1022D00019340E344A340E347B340E34AD340E349B
:1022E000E0340E3413340F3447340F347C340F345D
:1022F000B2340F34E8340F341F34103456341034F1
:102300008F341034C8341034023411343D34113455
:1023100079341134B5341134F23411343034123488
:102320006F341234AF341234EF3412343134133486
:1023300073341334B6341334FB341334403414344C
:1023400086341434CD341434143415345D341534D7
:10235000A7341534F23415343E3416348B34163425
:10236000D93416342834173478341734C934173430
:102370001B3418346E341834C334183418341934F8
:102380006F341934C734193420341A347B341A3476
:10239000D6341A3433341B3491341B34F0341B34A8
:1023A00051341C34B3341C3416341D347A341D3487
:1023B000E0341D3447341E34B0341E341A341F3414
:1023C00086341F34F3341F3461342034D134203444
:1023D00043342134B53421342A342234A034223415
:1023E00018342334913423340C3424348934243481
:1023F0000734253487342534093426348C34263484
:10240000113427349834273421342834AC34283418
:1024100039342934C734293458342A34EA342A3434
:102420007E342B3415342C34AD342C3447342D34D5
:0C243000E4342D3483342E3423342F3454
:1024400073087204710470040319272A282A2A2A9F
:102450008030F3060800F601F11F2F2A302A372AB0
:10246000F009F109F00A0319F10AF601F60AF31F5F
:102470003A2A3B2A442AF209F309F20A0319F30A19
:102480000130F4007408F606F701F80170087104D1
:1024900003194B2A4C2A7B2AF501F50A582A0130E8
:1024A000F035F10D890B502A0130F4007408F5075E
:1024B000F11F5B2A5C2A4F2A0130F735F80D890B92
:1024C0005D2A71087302031D672A70087202031CDB
:1024D0006A2A6B2A702A7008F2027108F33B77149B
:1024E0000130F136F00C890B712A0130F502031D21
:1024F0007A2A7B2A5C2A760803197F2A802A852A71
:10250000F709F809F70A0319F80A7808F1007708BB
:10251000F0000800F2012030860000308700473FBD
:10252000F000F01F942A952AB62A2000A009A109DC
:10253000A209A309A409A509A609A709A00A031DC0
:10254000B42AA10A031DB42AA20A031DB42AA30AAD
:10255000031DB42AA40A031DB42AA50A031DB42A24
:10256000A60A031DB42AA70AF201F20A283086003F
:1025700000308700473FF000F01FBF2AC02AE32A3F
:102580002000A809A909AA09AB09AC09AD09AE093F
:10259000AF09A80A031DDF2AA90A031DDF2AAA0A18
:1025A000031DDF2AAB0A031DDF2AAC0A031DDF2A45
:1025B000AD0A031DDF2AAE0A031DDF2AAF0A013070
:1025C000F0007008F2067330860000308700083093
:1025D000F00000301E00F00BEA2A20002008210441
:1025E0002204230424042504260427040319F92AB9
:1025F000FA2A562BF101F10A092BA035A10DA20DE3
:10260000A30DA40DA50DA60DA70D0130F0007008B7
:10261000F107A71F0C2B0D2BFD2AF335F40DF50D3B
:10262000F60DF70DF80DF90DFA0D27082F02031D11
:10263000332B26082E02031D332B25082D02031DE4
:10264000332B24082C02031D332B23082B02031DDC
:10265000332B22082A02031D332B21082902031DD4
:10266000332B20082802031C362B372B482B20083D
:10267000A8022108A93B2208AA3B2308AB3B240857
:10268000AC3B2508AD3B2608AE3B2708AF3B731497
:10269000A736A60CA50CA40CA30CA20CA10CA00C94
:1026A0000130F102031D552B562B0D2B7208031917
:1026B0005A2B5B2B792BF309F409F509F609F70975
:1026C000F809F909FA09F30A031D792BF40A031D25
:1026D000792BF50A031D792BF60A031D792BF70ACE
:1026E000031D792BF80A031D792BF90A031D792B99
:1026F000FA0A73082000A0007408A1007508A2005F
:102700007608A3007708A4007808A5007908A60039
:102710007A08A7000800A731A227933100302300D0
:10272000BF000030BE000030BD000030BC00C00162
:10273000C1010032003200000230A731B8279331C6
:1027400071082300C5007008C400023080310B20DE
:10275000933123004608F0004708F100F201F3012D
:1027600000309C31C124933123004408F000450817
:10277000F100F201F30100309C31C1249331730860
:102780002300BB007208BA007108B9007008B800D5
:102790003B082000A70023003A082000A6002300E1
:1027A00039082000A500230038082000A4003B3091
:1027B000A300A030A2002830A1000A30A0008A3176
:1027C0009522933120002308B8002208B700210881
:1027D000B6002008B50023003F082000BC002300FD
:1027E0003E082000BB0023003D082000BA00230063
:1027F0003C082000B90088315D2093312000380862
:102800002300BF00200037082300BE002000360848
:102810002300BD00200035082300BC000130C007A4
:102820000030C13D4108803A2100E6008030660258
:10283000031D1D2C0A3023004002031C202C212CD8
:10284000992B41302000D4002030D3000030D2003A
:102850000030D10023003F082000D80023003E08AC
:102860002000D70023003D082000D60023003C08AC
:102870002000D50096314C269331200054082300C7
:10288000CB00200053082300CA0020005208230078
:10289000C900200051082300C80040302000D000AB
:1028A0005130CF004730CE00AE30CD000430C43EB2
:1028B000860001308700403FC900413FCA00423FC7
:1028C000CB00433FCC0098316F20933120004C085F
:1028D000D8004B08D7004A08D6004908D5003B303D
:1028E000D4002330D300D730D2000A30D100963143
:1028F0004C26933120005408EE005308ED00520896
:10290000EC005108EB009B31B023933120006C08A0
:102910002300C30020006B082300C200C31F912CBA
:10292000922C952CC201C301A22C013043020F301E
:1029300003194202031C9D2C9E2CA22C0E30C200B7
:102940000130C30000302200DC00A830DD0023008D
:1029500043088500420884008435850D00308407D3
:102960009030853D003F2200DE00013FDF00043053
:10297000C43E860001308700403FE000413FE10057
:10298000423FE200433FE300A03099318821933178
:10299000A030A731D027933102302100E700453025
:1029A000E600A930890BD22CE60BD22CE70BD22CF7
:1029B00000328E2B803102282000BD003008C40078
:1029C0003108C5003208C6003308C7003408C80003
:1029D0003508C9003608CA003708CB0044308600E5
:1029E00000308700473FB800B81BF72CF92C0130A6
:1029F000FA2C00302000B900BA013908C2003A08A8
:102A0000C300420843040319062D072D252DC409D0
:102A1000C509C609C709C809C909CA09CB09C40A31
:102A2000031D252DC50A031D252DC60A031D252DB1
:102A3000C70A031D252DC80A031D252DC90A031D1C
:102A4000252DCA0A031D252DCB0A2100EB1B292D9C
:102A50002A2D2E2DFD30EC05FF30ED056B08803A58
:102A60002000B80080303802031D392D01302100CC
:102A70006A0203183C2D3D2D432D01302000BE007D
:102A80000030BF004B2D21006B082000BF0021004B
:102A90006A082000BE00210069082000C100210052
:102AA00068082000C00042084304031D582D592D1A
:102AB0005E2D21006C1D5D2D5E2D632DFF302000ED
:102AC000C007FF30C13D4F302000CC000030CD00AA
:102AD0002400EF01D42DFF302000CC07FF30CD3D86
:102AE0000A30A000A101A201A301A401A501A60131
:102AF000A7014408A8004508A9004608AA004708FD
:102B0000AB004808AC004908AD004A08AE004B08CD
:102B1000AF009E311C26943120002108F4002008CB
:102B2000F30098311C2094317308303E2000B80027
:102B30004C08203E86000230870038088100FF30B4
:102B4000BE07FF30BF3DFF30C007FF30C13D0A3038
:102B5000A000A101A201A301A401A501A601A70152
:102B60004408A8004508A9004608AA004708AB0089
:102B70004808AC004908AD004A08AE004B08AF0059
:102B800092318A22943120002008C4002108C50017
:102B90002208C6002308C7002408C8002508C90069
:102BA0002608CA002708CB0020004D08803AB8004C
:102BB00080303802031DDE2D01304C02031CE12D54
:102BC000E22D0F2E20004408450446044704480423
:102BD00049044A044B04031DEE2DEF2D6B2D3F08D5
:102BE000803AB80080303802031DF82D01303E02D3
:102BF0000318FB2DFC2D6B2D20004108803AB800F6
:102C000080303802031D062E01304002031C092EBD
:102C10000A2E0F2E2100EC180E2E0F2E6B2D2000E9
:102C200042084304031D152E162E1B2E21006C1D79
:102C30001A2E1B2E382EFF302000CC07FF30CD3D42
:102C400042084304031D252E262E2B2E2B30BB00BD
:102C50000030BC002F2E2D30BB000030BC003B08E4
:102C6000B8004C08203E86000230870038088100FA
:102C700020004C08203EB8003808A4004108A600F7
:102C80004008A5003D088831042094312000250823
:102C9000B1002408B0000800200058088039D9008D
:102CA0005908E2005835D9005908E900D71F592EB4
:102CB0005A2E5B2E6914690803195F2E602E702E40
:102CC000690A031D642E652E6D2E0030D800003079
:102CD000D7000030D6000030D500D717D801782EA5
:102CE0000030D8000030D7000030D6000030D500CA
:102CF00054088039D9005908E2065435D9005908DA
:102D0000EA00D31F842E852E862E6A146A080319C2
:102D10008A2E8B2E9B2E6A0A031D8F2E902E982EA4
:102D20000030D4000030D3000030D2000030D10099
:102D3000D317D401A32E0030D4000030D3000030CC
:102D4000D2000030D1005408530452045104031D32
:102D5000AA2EAB2EC42E0030D8000030D700003091
:102D6000D6000030D5008030D7047F30D804620808
:102D7000D9005908D8045808D4005708D300560879
:102D8000D2005508D100FF2F6908031DC82EC92E97
:102D9000D22E0030D4000030D3000030D2000030FA
:102DA000D100FF2F6908D900DA015A08DC006A084F
:102DB0005902DB00031CDC035B087F3EE3000030AC
:102DC0005C3DE4005808E1005708E0005608DF00C9
:102DD0005508DE000030D8000030D7000030D600A3
:102DE0000030D5000030E8000030E7000030E60099
:102DF0000030E500EA013A2F6A080319002F012F7D
:102E00001B2F0130DE35DF0DE00DE10D890B022FA8
:102E10000130D535D60DD70DD80D890B092FE81FF8
:102E2000122F132F142F55140130E535E60DE70D41
:102E3000E80D890B152F54086102031D292F530833
:102E40006002031D292F52085F02031D292F51081C
:102E50005E02031C2C2F2D2F362F68175108DE021F
:102E60005208DF3B5308E03B5408E13B0130D900F6
:102E70005908EA071A306A02031C3F2F402FFC2E24
:102E8000610860045F045E040319472F482F612F17
:102E90006514612F0130D535D60DD70DD80D890BAE
:102EA0004B2FE81F542F552F562F55140130E53561
:102EB000E60DE70DE80D890B572FFF30E307FF30D4
:102EC000E43DD71F642F652F4A2FEA01E81F692FC1
:102ED0006A2F862FFF306505D900FF306605DA00BE
:102EE000FF306705DB007F306805DC005C085B04B1
:102EF0005A04590403197D2F7E2F812FEA01EA0A13
:102F0000862F551C842F852F862F7E2F6A08031944
:102F10008A2F8B2FB32F0130D5070030D63D0030DC
:102F2000D73D0030D83D581C962F972FB32F55080A
:102F3000D9005608DA005708DB005808DC000130D9
:102F4000DD00DC37DB0CDA0CD90CDD0BA12F5C08C3
:102F5000D8005B08D7005A08D6005908D5000130C0
:102F6000E3070030E43D6408803AD900803059021C
:102F7000031DBC2FFF306302031CBF2FC02FCD2FBA
:102F8000FF302000E3000030E4000030D8000030C3
:102F9000D7000030D6000030D50020006408803A09
:102FA000D90080305902031DD72F01306302031866
:102FB000DA2FDB2FE72F2000E301E4010030D800F7
:102FC0000030D7000030D6000030D500E2012000EC
:102FD0006308D9005908E900691CEF2FF02FF22F80
:102FE000D717F62F7F30D9005908D7056936D90091
:102FF0005908D8006208D9005908D804BB2E080027
:1030000083302200970008007008BF3EF200FF30B6
:10301000713DF300003073021A3003197202031C71
:1030200012281428013015280030F400F501740826
:10303000F0007508F10008007408803AF50080304F
:103040007502031D2528013073020318282829283A
:1030500035287309F5007409F600F50A0319F60A14
:103060007508F3007608F40035280800F4007408A9
:10307000F2007208F30040280130F2007208F407F1
:1030800074088600023087000108031D482849287B
:103090003C2873087402F000F101F01BF1030800F2
:1030A000F401F501701C552856285A287208F407B7
:1030B0007308F53D0130F235F30D890B5B280130C3
:1030C000F136F00C890B602870087104031D692823
:1030D0006A2852287508F1007408F0000800803052
:1030E0002000CC065008B8004F08B7004E08B600C4
:1030F0004D08B5004C08BC004B08BB004A08BA009C
:103100004908B90088315D20983120003808CC008A
:103110003708CB003608CA003508C9000800F4019A
:10312000F40A203070067104031997289828A828FB
:103130007008F73EF200FF30713DF300003073027B
:10314000053003197202031CA628A728A828F40139
:103150007408F200F3017208F0007308F10008002F
:10316000F7007108F5007008F4007708F2007208A3
:10317000F6007608860002308700F60A7508F3002C
:103180007408F200F40A0319F50A7208840073083F
:1031900085000008C03F8908031DCF28D028B92822
:1031A0000800083023009F0090309D0024309E00CE
:1031B00019309B009C010030F0000030F100A73175
:1031C000722798310030F0000030F100A7317827E5
:1031D00098310030F0000030F100A7316C279831B1
:1031E0002100EE010800F800F401F5017008F2007A
:1031F000F3017208F6007308F700781C0029012912
:1032000005297608F4077708F53D0130F635F70D06
:10321000890B06290310F80C7808031D10291129C1
:10322000FD287508F1007408F000080022008C01E8
:103230008E01373021008C002F308E001F3023008C
:103240008E0037308C0024008C018E0125008C010B
:103250008E01373026008C003F308E003F30270033
:103260008C003F308E0015303C00A40014303D002F
:10327000A40008007608BF3EF800FF30773DF90053
:10328000003079021A3003197802031C48294A29B0
:1032900001304B290030FA00FB017A08FC007B0862
:1032A000FD007C087D040319562957295E2920302A
:1032B0007604F60000307704F7005E29080020004D
:1032C000A300A101A20177292008F900FA017908D9
:1032D000F0007A08F1007808FB007B08F2009A31D0
:1032E0003622993101302000A1070030A23D21088B
:1032F0002307F90079088600023087000108FA00E8
:103300007A08A0002008031D86298729642908005F
:103310002100DF005E302000EF006F082100E00098
:103320005F082000EF006F082100E100E201E301E7
:10333000E401E50122005D08DA005C08D900E03014
:103340002000EF006F082200DB00E1309931B4214A
:103350009931210062085F072000EF006F088600A6
:1033600001308700810108002100DA0022005A089C
:103370002100DC00220059082100DB002200EC01C2
:10338000ED01D829DB30D8005808B90022005B08CD
:103390002100D9005908BA005A088C31EC2499311F
:1033A000210039082200EC0721003A082200ED3DF7
:1033B00021005B0884005C0885001200031DE129E0
:1033C000E229C22922006D08DA006C08D900080041
:1033D00000307005F80000307105F900803072058A
:1033E000FA007F307305FB007B087A0479047804C7
:1033F000031DFB29FC29042A0030F3000030F200F1
:103400000030F1000030F00000307405F8000030AA
:103410007505F90080307605FA007F307705FB00EE
:103420007B087A0479047804031D172A182A202AB5
:103430000030F7000030F6000030F5000030F400F6
:1034400077087306031D2E2A76087206031D2E2A9E
:1034500075087106031D2E2A740870060319312A97
:10346000322A342A0310352A03140800720803197B
:103470003A2A3B2A402A7208031D3F2A402A452A3D
:103480007008803104209A31852A7208033E860034
:1034900087011600010403194E2A4F2A6C2A72086C
:1034A000033E86008701403FF300413FF400720A6B
:1034B00086008701403FF500413FF6007608803ADC
:1034C000F7007408803A7702031D682A73087502B2
:1034D00003186B2A6C2A852A7008F300720886008C
:1034E0008701720A8400850100080107F40074084E
:1034F00086000130870073088100720A8600870108
:103500000130810741310318810A0800F601F31FD9
:103510008A2A8B2A922AF209F309F20A0319F30A7A
:10352000F601F60AF11F952A962A9B2AF009F1095D
:10353000F00A0319F10A700871040319A02AA12ADC
:10354000CA2AF501F50AAD2A0130F035F10D890BD3
:10355000A52A0130F4007408F507F11FB02AB12A3A
:10356000A42A71087302031DB72A70087202031C93
:10357000BA2ABB2ABF2A7008F2027108F33B013055
:10358000F136F00C890BC02A0130F502031DC92A5F
:10359000CA2AB12A76080319CE2ACF2AD42AF209D8
:1035A000F309F20A0319F30A7308F1007208F00034
:1035B0000800F5007508F4007408F8007108F700B9
:1035C0007008F6000130F2020030F33B720A031D6E
:1035D000ED2A730A031DED2AEE2AFD2AF001F101FE
:1035E000302B0130F4007408F8070130F607003082
:1035F000F73D0130F2020030F33B78088600870186
:1036000001080319042B052B232B76088400770867
:103610008500120003190D2B0E2B232B7208730447
:103620000319132B142B232B7608840077088500AD
:103630000008F40078088600870101087406031961
:10364000222B232BF12A7808860087017608840034
:103650007708850000080102F000F101031CF10366
:10366000080022006B082000A50022006A08200044
:10367000A400220069082000A3002200680820009E
:10368000A2007308A5007208A4007108A3007008C6
:10369000A2002208F4002308F5002408F6002508FB
:1036A000F7001730F736F60CF50CF40C890B522B9B
:1036B000FF307405A00000307505A100200821042A
:1036C000031D632B642B852B2208F4002308F500CF
:1036D0002408F6002508F7000130F435F50DF60D45
:1036E000F70D890B6D2B7708760475047404031DA0
:1036F0007A2B7B2B802B0230F0000030F100AF2BB7
:103700000330F0000030F100AF2B200A2104031D2C
:103710008A2B8B2BAB2B2208F4002308F5002408FE
:10372000F6002508F7000930F435F50DF60DF70D14
:10373000890B942B77087604750474040319A12B64
:10374000A32B0130A42B0030F800F9017808F00019
:103750007908F100AF2B0430F0000030F1000800D0
:10376000031020006D0D6E0D2100A0002008A600A2
:103770002608031DBC2BBD2BC72B00302000EE00FC
:103780000030ED000030EC000030EB00352C200064
:103790006B082100A00020006C082100A10020007F
:1037A0006D082100A20020006E082100A3001F3038
:1037B000A336A20CA10CA00C890BD82B2008A400C6
:1037C0002408A5002000ED17FF30EB05FF30EC05C5
:1037D000FF30ED050030EE0596302100A602A61F51
:1037E000F22BF32B0D2C2608803A973E0318F92B69
:1037F000FA2BFB2BBD2B01302000EE36ED0CEC0C30
:10380000EB0C890BFC2B01302100A0002008A6073F
:10381000031D0B2C0C2CFB2B242C20302602031C0C
:10382000122C132C1F2CBD2B01302000EB35EC0D7E
:10383000ED0DEE0D890B152C01302100A602260896
:10384000031D232C242C142C25080319282C292C87
:10385000352C2000EB09EC09ED09EE09EB0A031900
:10386000EC0A0319ED0A0319EE0A080000302000E3
:103870003505BD0000303605BE0080303705BF007D
:103880007F303805C00040083F043E043D04031D5E
:103890004A2C4B2C532C0030B8000030B7000030BD
:1038A000B6000030B50000303905BD0000303A05E3
:1038B000BE0080303B05BF007F303C05C0004008A3
:1038C0003F043E043D04031D662C672C6F2C003022
:1038D000BC000030BB000030BA000030B900B81F97
:1038E000722C732C8B2C0030BD000030BE000030D9
:1038F000BF008030C0003508BD023608BE3B370827
:10390000BF3B3808C03B4008B8003F08B7003E083E
:10391000B6003D08B500BC1F8E2C8F2CA72C0030A4
:10392000BD000030BE000030BF008030C00039084C
:10393000BD023A08BE3B3B08BF3B3C08C03B4008C9
:10394000BC003F08BB003E08BA003D08B90080300B
:10395000B8068030BC063C083802031DB92C3B0871
:103960003702031DB92C3A083602031DB92C390859
:1039700035020318BC2CBD2CBF2C0310C02C031423
:103980000800F80078080319C62CC72CDB2CF31F9D
:10399000CA2CCB2CDB2C7009FA007109FB007209D0
:1039A000FC007309FD00FA0A0319FB0A0319FC0A5B
:1039B0000319FD0AE32C7308FD007208FC0071086E
:1039C000FB007008FA007308720471047004031D90
:1039D000EA2CEB2CF42C0030F3000030F200003025
:1039E000F1000030F0006C2D9630F4007408F900FE
:1039F000042D0130F4007408F9070130FD36FC0C89
:103A0000FB0CFA0C890BFE2CFE307D05031D092DE5
:103A10000A2DF92C1E2D0130F4007408F90701302D
:103A2000FA070030FB3D0030FC3D0030FD3D013029
:103A3000FD36FC0CFB0CFA0C890B182DFF307D05B4
:103A4000031D232D242D0B2D2E2D0130F9020130C5
:103A5000FA35FB0DFC0DFD0D890B282DFC1B312DBE
:103A6000322D382D023079020318372D382D252DAF
:103A700079183B2D3C2D442DFF30FA05FF30FB0516
:103A80007F30FC05FF30FD050310F90C7908F400C8
:103A9000F501F601F7011830F435F50DF60DF70DC7
:103AA000890B4C2D7408FA047508FB047608FC0495
:103AB0007708FD04780803195E2D5F2D642DF31F30
:103AC000622D632D642DFD177D08F3007C08F20044
:103AD0007B08F1007A08F00008002000A701A80187
:103AE000A001A101772D0130F6070030F73DA601B6
:103AF000A60A76088400770885001200203A031988
:103B0000822D832D982D7608840077088500000883
:103B1000F73EF800FF3003180030F900003079025A
:103B2000053003197802031C962D972D982DA601B8
:103B30002608F800F9017808A2007908A3002208F5
:103B40002304031DA42DA52D732DAF2D0130A0003E
:103B50000030A1000130F6070030F73DE32D760874
:103B60008400770885000008F800F9017908003A18
:103B70000319BB2DE32D78082B3A0319AA2D063A19
:103B80000319A62DE32D7608840077088500000828
:103B9000F8002808F1002708F0000A30F200003091
:103BA000F300983150209D317108FA0078087002B6
:103BB000F900031CFA037908303E2000A70000300A
:103BC0007A3DA800AA2D76088400770885000008B1
:103BD000D03EF800FF3003180030F90000307902C1
:103BE0000A3003197802031CF62DF82D0130F92D47
:103BF0000030FA00FB017A08A4007B08A500240825
:103C00002504031D042E052EC32D20082104031DA9
:103C10000A2E0B2E172E2709F8002809F900F80A9A
:103C20000319F90A7808F6007908F7001B2E28080E
:103C3000F7002708F6000800F2012830860000305F
:103C40008700473FF000F01F262E272E482E200029
:103C5000A809A909AA09AB09AC09AD09AE09AF09C0
:103C6000A80A031D462EA90A031D462EAA0A031DF3
:103C7000462EAB0A031D462EAC0A031D462EAD0A86
:103C8000031D462EAE0A031D462EAF0AF201F20AAC
:103C90002030860000308700473FF000F01F512E93
:103CA000522E712E2000A009A109A209A309A4097E
:103CB000A509A609A709A00A031D712EA10A031DC3
:103CC000712EA20A031D712EA30A031D712EA40AD0
:103CD000031D712EA50A031D712EA60A031D712E48
:103CE000A70A200020082104220423042404250418
:103CF0002604270403197D2E7E2ED12EF101F10A10
:103D00008D2EA035A10DA20DA30DA40DA50DA60D00
:103D1000A70D0130F0007008F107A71F902E912E1B
:103D2000812E27082F02031DAF2E26082E02031D09
:103D3000AF2E25082D02031DAF2E24082C02031DD3
:103D4000AF2E23082B02031DAF2E22082A02031DCB
:103D5000AF2E21082902031DAF2E20082802031CC4
:103D6000B22EB32EC32E2008A8022108A93B220898
:103D7000AA3B2308AB3B2408AC3B2508AD3B2608F7
:103D8000AE3B2708AF3BA736A60CA50CA40CA30C92
:103D9000A20CA10CA00C0130F102031DD02ED12EDB
:103DA000912E72080319D52ED62EF42EA809A90932
:103DB000AA09AB09AC09AD09AE09AF09A80A031DF0
:103DC000F42EA90A031DF42EAA0A031DF42EAB0A31
:103DD000031DF42EAC0A031DF42EAD0A031DF42EB0
:103DE000AE0A031DF42EAF0A20002808A0002908FF
:103DF000A1002A08A2002B08A3002C08A4002D086B
:103E0000A5002E08A6002F08A700080022006708BA
:103E10002100AF00220066082100AE0022006508E4
:103E20002100AD00220064082100AC0020006E08D3
:103E30002100AF0020006D082100AE0020006C08BA
:103E40002100AD0020006B082100AC002C08A00070
:103E50002D08A1002E08A2002F08A3001730A336BA
:103E6000A20CA10CA00C890B2F2FFF302005A40061
:103E700000302105A5002408813EAA00FF30253D21
:103E8000AB002B08803AA00080302002031D4A2F8F
:103E900017302A02031C4D2F4E2F4F2FFF2F2100CA
:103EA000AB1B532F542FB12FFF30A000FF30A100C8
:103EB0007F30A2000030A3002A0A622FA337A20C91
:103EC000A10CA00C890B5E2F2308A9002208A800D2
:103ED0002108A7002008A6002C082605A0002D0810
:103EE0002705A1002E082805A2002F082905A300F8
:103EF0002308220421042004031D7F2F802F812FFB
:103F00004E2F2C08A0002D08A1002E08A2002F087B
:103F1000A3001F30A336A20CA10CA00C890B8A2F82
:103F200023082204210420040319972F982FA02F7F
:103F30002608AC072708AD3D2808AE3D2908AF3D4F
:103F40002609A0002709A1002809A2002909A30029
:103F50002008AC052108AD052208AE052308AF05F1
:103F6000F02F2C08A0002D08A1002E08A2002F0879
:103F7000A3001F30A336A20CA10CA00C890BBA2FF2
:103F80002308220421042004031DC72FC82FD12F8A
:103F90000030AF000030AE000030AD000030AC00AB
:103FA000F02F2C08A0002D08A1002E08A2002F0839
:103FB000A3000130A035A10DA20DA30D890BDA2FAE
:103FC00023082204210420040319E72FE82FF02FEF
:103FD000BF30AF008030AE000030AD000030AC002C
:103FE0002F082000EE0021002E082000ED00210007
:103FF0002D082000EC0021002C082000EB00080018
:104ED80071082300D1007008D00008007108230071
:104EE800D5007008D400080071082300D3007008AA
:104EF800D2000800320091019201930194019501BA
:104F080096010800803021009E009F019B019C01B2
:104F1800FD309D0008006230320099009B019D0120
:104F280003309F009E010800F0002000111E9D2FF5
:104F38009E2F992F700823009A000800A7317E271A
:104F4800A73199311621A731A7318F27A731883189
:104F58000020A73198310020A731A7318627A73133
:104F68009831D120A7310800F3007308F200F20D40
:104F7800F20D21001D087206033972069D001D14EA
:104F8800000021009D149D18CA2FCB2FC72F1C0885
:104F9800F1001B08F0000800F200DE2F72088600FE
:104FA800013087000108A7319827A7310130F100A7
:104FB8007108F20772088600013087000108031D96
:104FC800E62FE72FD22F08007008D03EF200FF30FE
:104FD800713DF300003073020A3003197202031C9A
:104FE800F62FF82F0130F92F0030F400F50174087E
:104FF800F0007508F1000800253464342C34253499
:1050080035342E343334663456340D340A3400348F
:1050180049344E34463400344E3441344E3400342E
:1050280069346E34663400346E3461346E3400345E
:065038006C346634003404
:020000040001F9
:08000E00EC3FF33FFF3FFF3F11
:00000001FF
