:10000000803102288731D72F73087204710470047D
:1000100003190B280C280E288030F3060800F6017F
:10002000F11F132814281B28F009F109F00A0319FD
:10003000F10AF601F60AF31F1E281F282828F209E4
:10004000F309F20A0319F30A0130F4007408F60602
:10005000F701F8017008710403192F2830285F2870
:10006000F501F50A3C280130F035F10D890B3428F3
:100070000130F4007408F507F11F3F2840283328A9
:100080000130F735F80D890B412871087302031D03
:100090004B2870087202031C4E284F285428700801
:1000A000F2027108F33B77140130F136F00C890B42
:1000B00055280130F502031D5E285F284028760888
:1000C0000319632864286928F709F809F70A03194E
:1000D000F80A7808F1007708F00008002100C50050
:1000E000C301C4012308D9002208D8002108D70081
:1000F0002008D60059082000E700210058082000F9
:10010000E600210057082000E500210056082000E5
:10011000E4000030EB000030EA000030E90000307D
:10012000E8009E311A268031031897289828B128B4
:1001300001302100C3000030C4005908F300580802
:10014000F2005708F1005608F00080310420803199
:1001500073082100D9007208D8007108D700700810
:10016000D6002100DC01DD0123002B082100C9009D
:1001700023002A082100C80043084404031DC128A5
:10018000C228C72822006E1DC628C728E5282100DE
:1001900043084404031DCD28CE28D3282B30A900C2
:1001A0000030AA00D7282D30A9000030AA00290865
:1001B000A50025082400A00001302100DC07003044
:1001C000DD3DFF30C807FF30C93D21005908F3006D
:1001D0005808F2005708F1005608F0009D319B25A1
:1001E000803170037104031DF628F7284929210086
:1001F0002408BF3EA500FF3003180030A6000030E1
:1002000026021A3003192502031C07290929013087
:100210000A290030A700A8012708AB002808AC0075
:100220002B082C0403191529162920290C30F0005D
:10023000A830F1005C08203E9A31E1228031292962
:100240001430F000A830F1005C08203E9A31E12221
:100250008031FD302100C807FF30C93D2030A500A6
:1002600025082000A400210049082000A600210044
:1002700048082000A500210045089C31E724803172
:10028000200025082100A100200024082100A00052
:10029000D62F21005908F3005808F2005708F10042
:1002A0005608F0009D319B25803170087104031DB4
:1002B0005A295B29AD2921002408BF3EA500FF3043
:1002C00003180030A600003026021A300319250258
:1002D000031C6B296D2901306E290030A700A8018D
:1002E0002708AD002808AE002D082E04031979292F
:1002F0007A2984291030F000A830F1005C08203EF3
:100300009A31E12280318D291830F000A830F100B7
:100310005C08203E9A31E1228031FD302100C8077F
:10032000FF30C93D2030A50025082000A400210091
:1003300049082000A600210048082000A50021004F
:1003400045089C31E7248031200025082100A100C8
:10035000200024082100A000D62F3F302100E1001A
:100360008030E0000030DF000030DE00DA01DB0129
:100370005908F3005808F2005708F1005608F00039
:100380000030F7000030F6000030F5000030F400D7
:100390009B31F02380310318CE29CF29932A002ADC
:1003A00041302000CD002030CC000030CB000030A8
:1003B000CA00210061082000D1002100600820004F
:1003C000D00021005F082000CF0021005E0820003F
:1003D000CE008A312A22803120004D082100E10020
:1003E00020004C082100E00020004B082100DF0025
:1003F00020004A082100DE000130DA070030DB3D32
:10040000210059082000E700210058082000E600DC
:10041000210057082000E500210056082000E400D4
:100420004130CD002030CC000030CB000030CA007D
:10043000210061082000D100210060082000D000C8
:1004400021005F082000CF0021005E082000CE00C0
:100450008A312A22803120004D08EB004C08EA0046
:100460004B08E9004A08E8009E311A26803103183B
:100470003A2A3B2AD0296C2A41302000B300203090
:10048000B2000030B1000030B0002100610820004F
:10049000B700210060082000B60021005F0820009E
:1004A000B50021005E082000B4008831762080313C
:1004B000200033082100E100200032082100E00084
:1004C000200031082100DF00200030082100DE007C
:1004D000FF30DA07FF30DB3D210059082000E7003C
:1004E000210058082000E600210057082000E50000
:1004F000210056082000E400210061082000EB00E4
:10050000210060082000EA0021005F082000E900C7
:1005100021005E082000E8009E311A268031031C6D
:10052000922A932A3C2A21002408A500A601250826
:10053000F6002608F7009B316B23803176082100F6
:10054000A7002708CB004B08A5002508CA00673084
:100550004B06031DAC2AAD2AD62A22006C086D0476
:10056000031DB32AB42AB82A0130EC000030ED0094
:100570006D08803A2100A50080302502031DC32AA2
:10058000013022006C020318C62AC72ACD2A063081
:100590002100C6000030C700DC2A22006D082100BF
:1005A000C70022006C082100C600DC2A2200ED1BD7
:1005B000DA2ADB2AC72ACD2A67304B06031DE12A37
:1005C000E22A0F2B5B08803AA5007F302502031D2D
:1005D000EB2AFC305A02031CEE2AEF2A0A2B2100D8
:1005E0004608FF3EA500FF30473DA6002608803A9A
:1005F000A7005B08803A2702031D002B5A0825023A
:10060000031C032B042B0A2B66302100A5002508B0
:10061000CA000F2B65302100A5002508CA00470835
:10062000BC004608BB0067304B06031D182B192B76
:10063000232B66304A06031D1E2B1F2B272BDB1F87
:10064000222B232B272B0130BB070030BC3D66300B
:100650004A06031D2C2B2D2B452BDB1F302B312B5A
:100660003B2B3F30E1008030E0000030DF00003005
:10067000DE00DA01DB0167304B060319402B412B0A
:10068000452B5A08BB075B08BC3DD401D50159086E
:10069000CF005808CE005708CD005608CC0061089E
:1006A000C0006008BF005F08BE005E08BD002F2CC0
:1006B000210061082000B300210060082000B20082
:1006C00021005F082000B10021005E082000B0007A
:1006D00021004F082000B70021004E082000B6007E
:1006E00021004D082000B50021004C082000B40076
:1006F00088317620803120003308CD003208CC00CC
:100700003108CB003008CA0091311F218031200010
:100710004D082100D30020004C082100D200200009
:100720004B082100D10020004A082100D0005308C6
:100730002000CD00210052082000CC0021005108EB
:100740002000CB00210050082000CA008831012081
:10075000803120004B082100C20020004A082100FF
:10076000C10053082000D100210052082000D00011
:10077000210051082000CF00210050082000CE00A9
:10078000210061082000CD00210060082000CC007D
:1007900021005F082000CB0021005E082000CA0075
:1007A0008A312A22803120004D08AB004C08AA0073
:1007B0004B08A9004A08A80021004F082000AF00FC
:1007C00021004E082000AE0021004D082000AD00A1
:1007D00021004C082000AC009A31A022803120007A
:1007E0002B082100CF0020002A082100CE00200085
:1007F00029082100CD00200028082100CC0041302C
:100800002000B3002030B2000030B1000030B00052
:10081000210061082000B700210060082000B60018
:1008200021005F082000B50021005E082000B40010
:10083000883176208031200033082100E10020003B
:1008400032082100E000200031082100DF002000F4
:1008500030082100DE000130D4070030D53D5508B6
:10086000803AA5003C08803A2502031D392C3B083C
:100870005402031C3C2C3D2C582B40302000CD0052
:10088000A030CC000030CB000030CA00210061084D
:100890002000D100210060082000D00021005F0866
:1008A0002000CF0021005E082000CE008A312A22DD
:1008B000803120004D082100D30020004C08210089
:1008C000D20020004B082100D10020004A0821005E
:1008D000D0004F082000E70021004E082000E6006D
:1008E00021004D082000E50021004C082000E40014
:1008F000210053082000EB00210052082000EA00EC
:10090000210051082000E900210050082000E800E3
:100910009E311A26803103188E2C8F2C992C003092
:100920002100D3000030D2000030D1000030D000D0
:10093000BE2C21004F08F3004E08F2004D08F100D4
:100940004C08F0005308F7005208F6005108F50073
:100950005008F4009B31F0238031031CB02CB12CE3
:10096000BE2C21004118B52CB62CBE2C0030D30073
:100970000030D2000030D1000030D00021005308F8
:10098000F3005208F2005108F1005008F000590835
:10099000F7005808F6005708F5005608F40095319E
:1009A000C125803173082100CF007208CE00710884
:1009B000CD007008CC004F082000E70021004E0851
:1009C0002000E60021004D082000E50021004C0831
:1009D0002000E4004130CD002030CC000030CB00BE
:1009E0000030CA00210040082000D10021003F084B
:1009F0002000D00021003E082000CF0021003D084B
:100A00002000CE008A312A22803120004D08EB00E0
:100A10004C08EA004B08E9004A08E8009E311A2613
:100A20008031031C142D152D502D01302100DA07C3
:100A30000030DB3D41302000CD002030CC000030C4
:100A4000CB000030CA00210040082000D100210066
:100A50003F082000D00021003E082000CF002100E8
:100A60003D082000CE008A312A22803120004D0826
:100A70002100C00020004C082100BF0020004B08CE
:100A80002100BE0020004A082100BD0066304A0651
:100A9000031D4B2D4C2D502D0130BB070030BC3DAC
:100AA00021004008E1003F08E0003E08DF003D086B
:100AB000DE0065304A0603195E2D5F2D642D5B084C
:100AC000BA005A08B900662DB901BA01B701B801D8
:100AD000B501B601D401D501B12E21006108200075
:100AE000B300210060082000B20021005F08200050
:100AF000B10021005E082000B00021004F08200056
:100B0000B70021004E082000B60021004D0820004B
:100B1000B50021004C082000B400883176208031D7
:100B200020003308CD003208CC003108CB0030085B
:100B3000CA0091311F21803120004D082100D300CF
:100B400020004C082100D20020004B082100D100D9
:100B500020004A082100D00053082000CD002100C9
:100B600052082000CC00210051082000CB002100B9
:100B700050082000CA0088310120803120004B0835
:100B80002100C20020004A082100C10022006E1A84
:100B9000CA2DCB2DE12D210041084204031DD12D8A
:100BA000D22DE12D67304B06031DD72DD82DE12D19
:100BB000BA1FDB2DDC2DE12D0130B5070030B63D2D
:100BC0002F2E210037083804031DE72DE82D172E9E
:100BD000BA1FEB2DEC2D172E2E30A5005C08203E01
:100BE000860002308700250881000130DC070030D4
:100BF000DD3DFF30C807FF30C93D0130B700003090
:100C0000B800172E3030A5005C08203E8600023068
:100C10008700250881000130DC070030DD3DFF3012
:100C2000C807FF30C93DFF30B507FF30B63D350876
:100C30003604031D1C2E1D2E022E4108303EA50039
:100C40005C08203E860002308700250881000130C4
:100C5000DC070030DD3DFF30C807FF30C93D5308D9
:100C60002000D100210052082000D00021005108AE
:100C70002000CF00210050082000CE002100610894
:100C80002000CD00210060082000CC0021005F087A
:100C90002000CB0021005E082000CA008A312A22F1
:100CA000803120004D08AB004C08AA004B08A90079
:100CB0004A08A80021004F082000AF0021004E087C
:100CC0002000AE0021004D082000AD0021004C089E
:100CD0002000AC009A31A022803120002B08210096
:100CE000CF0020002A082100CE0020002908210082
:100CF000CD00200028082100CC0041302000B300A6
:100D00002030B2000030B1000030B0002100610896
:100D10002000B700210060082000B60021005F0815
:100D20002000B50021005E082000B4008831762044
:100D30008031200033082100E1002000320821002A
:100D4000E000200031082100DF00200030082100F1
:100D5000DE00FF30B907FF30BA3D0130D407003064
:100D6000D53D5508803AA5003C08803A2502031D70
:100D7000BB2E3B0854020318BE2EBF2ECD2E2100E1
:100D80005D08803AA50080302502031DC92E4B3036
:100D90005C02031CCC2ECD2E6D2D210037083804AB
:100DA000031DD32ED42EE72E22006E1ED82ED92E50
:100DB000E72E2E302100A5005C08203E8600023080
:100DC0008700250881000130DC070030DD3D21006F
:100DD0005C08203E860002308700810165304A06AB
:100DE000031DF32EF42EBB2F4F30D4000030D5005E
:100DF0005408203E8600023087008101C301C401EF
:100E0000DB1F032F042F0D2F0130C3000030C4005F
:100E1000DA09DB09DA0A0319DB0A0230C6000030FE
:100E2000C700452FFF302100D407FF30D53D0A30E1
:100E3000F0000030F1005B08F3005A08F2009C312A
:100E40003E2480317008303E2100A5005408203E29
:100E5000860002308700250881000A30F00000304B
:100E6000F1005B08F3005A08F20080310F20803156
:100E700071082100DB007008DA00FF30C607FF3080
:100E8000C73DFF30C807FF30C93D5A085B04031D4A
:100E90004A2F4B2F122F4708803AA5008030250299
:100EA000031D542F013046020318572F582F122FBD
:100EB000FF302100D407FF30D53D43084404031D13
:100EC000622F632F682F2B30AF000030B0006C2FE3
:100ED0002D30AF000030B0002F08A5005408203E90
:100EE00086000230870025088100FF30C807FF30E8
:100EF000C93DFF30D407FF30D53D2408BF3EA500D3
:100F0000FF3003180030A600003026021A30031903
:100F10002502031C8C2F8E2F01308F2F0030A7004D
:100F2000A8012708B3002808B40033083404031DBF
:100F30009A2F9B2FA02F6530B1000030B200A42F54
:100F40004530B1000030B2003108A5005408203E01
:100F500086000230870025088100FF30C807FF3077
:100F6000C93D5408203EF0000230F1005C08203EEC
:100F70009A31E122803120302100A500250820008F
:100F8000A400210049082000A600210048082000F4
:100F9000A500210045089C31E72480312000250868
:100FA0002100A100200024082100A00008001C301E
:100FB000840027308500D430FE000030FF00A731C8
:100FC000B72787312200EC01ED01EE01EF01A030DF
:100FD0008400013085000F30FE000030FF00A73193
:100FE000B727873120308400023085005030FE0062
:100FF0000030FF00A731B7278731200093310B2B3A
:101000000800031020004C0D4D0DCE004E08FD00D1
:101010007D08031D0C280D2816280030CD00003057
:10102000CC000030CB000030CA0075284A08CE0042
:101030004B08CF004C08D0004D08D1001F30D136EE
:10104000D00CCF0CCE0C890B1F284E08D2005208B2
:10105000FC00CC17FF30CA05FF30CB05FF30CC05B4
:101060000030CD059630FD02FD1F37283828502866
:101070007D08803A973E03183E283F2840280D28D7
:101080000130CD36CC0CCB0CCA0C890B4128013079
:10109000CE004E08FD07031D4E284F284028652826
:1010A00020307D02031C5528562860280D28013069
:1010B000CA35CB0DCC0DCD0D890B58280130FD0262
:1010C0007D08031D6428652857287C0803196928B2
:1010D0006A287528CA09CB09CC09CD09CA0A03199F
:1010E000CB0A0319CC0A0319CD0A080020003708DF
:1010F0008039B8003808C1003735B8003808C80052
:10110000B61F83288428852848144808031989288D
:101110008A289A28480A031D8E288F28972800308D
:10112000B7000030B6000030B5000030B400B6178C
:10113000B701A2280030B7000030B6000030B5007B
:101140000030B40033088039B8003808C1063335A0
:10115000B8003808C900B21FAE28AF28B02849141B
:1011600049080319B428B528C528490A031DB92818
:10117000BA28C2280030B3000030B2000030B100FD
:101180000030B000B217B301CD280030B3000030FA
:10119000B2000030B1000030B00033083204310436
:1011A0003004031DD428D528EE280030B7000030C5
:1011B000B6000030B5000030B4008030B6047F3097
:1011C000B7044108B8003808B7043708B300360838
:1011D000B2003508B1003408B000292A4808031DC0
:1011E000F228F328FC280030B3000030B2000030B1
:1011F000B1000030B000292A4808B800B901390808
:10120000BB0049083802BA00031CBB033A087F3E02
:10121000C20000303B3DC3003708C0003608BF00A5
:101220003508BE003408BD000030B7000030B600FD
:101230000030B5000030B4000030C7000030C600F8
:101240000030C5000030C400C901642949080319F1
:101250002A292B2945290130BD35BE0DBF0DC00DF2
:10126000890B2C290130B435B50DB60DB70D890B9E
:101270003329C71F3C293D293E2934140130C43588
:10128000C50DC60DC70D890B3F2933084002031D4C
:10129000532932083F02031D532931083E02031D22
:1012A000532930083D02031C562957296029471746
:1012B0003008BD023108BE3B3208BF3B3308C03B9B
:1012C0000130B8003808C9071A304902031C6929DF
:1012D0006A29262940083F043E043D040319712968
:1012E00072298B2944148B290130B435B50DB60D04
:1012F000B70D890B7529C71F7E297F2980293414D2
:101300000130C435C50DC60DC70D890B8129FF30CD
:10131000C207FF30C33DB61F8E298F297429C9012A
:10132000C71F93299429B029FF304405B800FF3026
:101330004505B900FF304605BA007F304705BB00C0
:101340003B083A04390438040319A729A829AB2912
:10135000C901C90AB029341CAE29AF29B029A8296E
:1013600049080319B429B529DD290130B407003033
:10137000B53D0030B63D0030B73D371CC029C1290E
:10138000DD293408B8003508B9003608BA00370836
:10139000BB000130BC00BB37BA0CB90CB80CBC0B9D
:1013A000CB293B08B7003A08B6003908B500380821
:1013B000B4000130C2070030C33D4308803AB80092
:1013C00080303802031DE629FF304202031CE92960
:1013D000EA29F729FF302000C2000030C3000030A6
:1013E000B7000030B6000030B5000030B400200077
:1013F0004308803AB80080303802031D012A0130CA
:1014000042020318042A052A112A2000C201C3013E
:101410000030B7000030B6000030B5000030B40036
:10142000C10120004208B8003808C800481C192A29
:101430001A2A1C2AB617202A7F30B8003808B605A9
:101440004836B8003808B7004108B8003808B70473
:10145000E528080020004D088039D2005208D70046
:101460004D35D2005208DD00CC1F372A382A392AE0
:101470005D145D0803193D2A3E2A4D2A5D0A031DAD
:10148000422A432A4B2A0030CD000030CC000030E5
:10149000CB000030CA00CC17552A0030CD000030F8
:1014A000CC000030CB000030CA0051088039D20097
:1014B0005208D7065135D2005208DC00D01F612AED
:1014C000622A632A5C145C080319672A682A772A4F
:1014D0005C0A031D6C2A6D2A752A0030D100003089
:1014E000D0000030CF000030CE00D0177F2A00306F
:1014F000D1000030D0000030CF000030CE005C08BA
:101500000319832A842A892A5D08031D882A892AC7
:10151000922A0030CD000030CC000030CB000030EB
:10152000CA00802C4A08D2005208F00050089B31B3
:1015300024238A3171082000E3007008E200620869
:10154000D200D301D401D5015508DB005408DA00DC
:101550005308D9005208D8006308D200D301D4013F
:10156000D5015508E1005408E0005308DF00520897
:10157000DE004B08D2005208F0004F089B312423B4
:101580008A3171082000E3007008E2006208D2008E
:10159000D301D401D5015208D8075308D93D5408C6
:1015A000DA3D5508DB3D6308D200D301D401D501F3
:1015B0005208DE075308DF3D5408E03D5508E13D81
:1015C0004C08D2005208F0004E089B3124238A3187
:1015D00071082000E3007008E2006208D200D30125
:1015E000D401D5015208D8075308D93D5408DA3D33
:1015F0005508DB3D6308D200D301D401D501520860
:10160000DE075308DF3D5408E03D5508E13D083052
:10161000D835D90DDA0DDB0D890B082B4B08D2001C
:101620005208F0004E089B3124238A3171082000B3
:10163000E3007008E2006208D8076308D93D003073
:10164000DA3DDB3D4A08D2005208F0004F089B31DA
:1016500024238A3171082000E3007008E200620848
:10166000D8076308D93D0030DA3DDB3D0830D83576
:10167000D90DDA0DDB0D890B372B4A08D200520841
:10168000F0004E089B3124238A3171082000E300CA
:101690007008E2006208D8076308D93D0030DA3DDF
:1016A000DB3D4B08D2005208F00050089B31242348
:1016B0008A3171082000E3007008E2006208DE074A
:1016C0006308DF3D0030E03DE13D4C08D2005208A8
:1016D000F0004F089B3124238A3171082000E30079
:1016E0007008E2006208DE076308DF3D0030E03D7D
:1016F000E13D4C08D2005208F00050089B312423F1
:101700008A3171082000E3007008E2006208D2000C
:101710006308D300D401D5010830D235D30DD40DE0
:10172000D50D890B8D2B5208DE075308DF3D540879
:10173000E03D5508E13D5808D2005908D3005A0849
:10174000D4005B08D5001830D536D40CD30CD20C9D
:10175000890BA42B5208DE075308DF3D5408E03DF7
:101760005508E13D0830D835D90DDA0DDB0D890B70
:10177000B32B5D085C07D200D301D30D5208823E23
:10178000E200FF30533DE300DC2B0130DE35DF0D9E
:10179000E00DE10D890BC62BDB1FCF2BD02BD12BFE
:1017A0005E140130D835D90DDA0DDB0D890BD22B43
:1017B000FF30E207FF30E33DE01FDF2BE02BC52BBE
:1017C000DC01DB1FE42BE52B012CFF305805D20098
:1017D000FF305905D300FF305A05D4007F305B0538
:1017E000D50055085404530452040319F82BF92B5F
:1017F000FC2BDC01DC0A012C5E1CFF2B002C012CD5
:10180000F92B5C080319052C062C2E2C0130DE0761
:101810000030DF3D0030E03D0030E13D611C112C27
:10182000122C2E2C5E08D2005F08D3006008D40072
:101830006108D5000130D600D537D40CD30CD20CBA
:10184000D60B1C2C5508E1005408E0005308DF00BB
:101850005208DE000130E2070030E33D6308803AC1
:10186000D20080305202031D372CFF306202031C6D
:101870003A2C3B2C452C7F302000E1008030E000EA
:101880000030DF000030DE00742C20006308803A56
:10189000D20080305202031D4F2C01306202031827
:1018A000522C532C5E2C00302000E1000030E00070
:1018B0000030DF000030DE00D701742C2000620809
:1018C000D2005208DD00FF30DE05FF30DF057F303B
:1018D000E0050030E1055D1C6E2C6F2C702CE017CC
:1018E0005D36D2005208E1005708D2005208E104E8
:1018F0006108CD006008CC005F08CB005E08CA001C
:1019000008002200B600210062088600013087002E
:10191000403FE400413FE50064088400650885001D
:101920001200253A031D952C962CD82F62088600AC
:10193000013087000130810741310318810A2300FB
:10194000AA01AB012200EE01EF01FF30EC00FF30F5
:10195000ED0021006208860001308700403FE4006E
:10196000413FE500640884006508850012002A3ABA
:10197000031DBB2CBC2CE12C6208860001308700C3
:101980000130810741310318810A63088600013064
:101990008700010884000130850002308107003F84
:1019A0002300AA00013FAB00AB1FD72CD82C2A2D57
:1019B00022006E142300AA09AB09AA0A0319AB0A74
:1019C0002A2D6208860001308700403FF600413F23
:1019D000F7009F3151278C3177082300AB00760840
:1019E000AA00FC2C2100620886000130870001302B
:1019F000810741310318810A210062088600013005
:101A00008700403FE400413FE5006408840065082A
:101A100085000008D03EE600FF3003180030E700E4
:101A2000003067020A3003196602031C182D1A2DB4
:101A300001301B2D0030E800E90168082200A800F1
:101A4000210069082200A90028082904031D292D66
:101A50002A2DF22C21006208860001308700403FC9
:101A6000E400413FE5006408840065088500120039
:101A70002E3A031D3C2D3D2DBE2D2200EC01ED0123
:101A80002100620886000130870001308107413162
:101A90000318810A6208860001308700403FE40095
:101AA000413FE500640884006508850012002A3A79
:101AB000031D5B2D5C2D752D6208860001308700AB
:101AC0000130810741310318810A63088600013023
:101AD0008700010884000130850002308107003F43
:101AE0002200EC00013FED00BE2D620886000130AF
:101AF0008700403FF600413FF7009F3151278C316E
:101B000077082200ED007608EC00902D2100620895
:101B10008600013087000130810741310318810AB6
:101B200021006208860001308700403FE400413F09
:101B3000E50064088400650885000008D03EE600E2
:101B4000FF3003180030E700003067020A30031945
:101B50006602031CAC2DAE2D0130AF2D0030E80025
:101B6000E90168082200AA00210069082200AB00F0
:101B70002A082B04031DBD2DBE2D862D21006208D1
:101B8000860001308700403FE400413FE5006408E3
:101B90008400650885000008E600E7016608F60095
:101BA0006708F7009B316B238C3176082100E80031
:101BB00068082200B20032080319DF2DE02D252E1F
:101BC00021006208860001308700403FE400413F69
:101BD000E50001306407840065080318650A850084
:101BE0000008E600E7016608F6006708F7009B3189
:101BF0006B238C3176082100E80068082200B300CE
:101C000033080319042E052E252E210062088600B4
:101C100001308700403FE400413FE50002306407A7
:101C2000840065080318650A85000008E600E701DE
:101C30006608F6006708F7009B316B238C31760845
:101C40002100E80068082200B40021006208860034
:101C500001308700403FE400413FE5006408840014
:101C6000650885001200643A0319372E382E4A2E73
:101C70006208860001308700403FE400413FE500F4
:101C800064088400650885001200693A031D492E26
:101C90004A2E9E2E6208860001308700013081079F
:101CA00041310318810A630886000130870001086A
:101CB00084000130850002308107003FE400013FCD
:101CC000E50064082200A000210065082200A100B0
:101CD000890D893B8909A200A300A400A500A600E4
:101CE000A70020082000B000220021082000B10039
:101CF000220022082000B200220023082000B300A6
:101D0000220024082000B400220025082000B5008D
:101D1000220026082000B600220027082000B70075
:101D200022003608943151248C31200031082100E2
:101D3000E300200030082100E200FF2F663022007F
:101D40003206031DA42EA52EF42E21006208860063
:101D500001308700403FE400413FE5006408840013
:101D6000650885000008E60066082200B50021002D
:101D70006208860001308700013081074131031875
:101D8000810A630886000130870001088400013061
:101D9000850004308107003F2200AE00013FAF0004
:101DA000023FB000033FB10031082100A300220030
:101DB00030082100A20022002F082100A1002200EB
:101DC0002E082100A000220035082100E40064084C
:101DD000A4002200360880316E208C3121002108B9
:101DE000E3002008E200FF2F1C30F000A830F100D3
:101DF0000230F2000030F30032309D3140258C314A
:101E000070087104031D052F062F9D2F2100620805
:101E1000860001308700403FE400413FE50001308B
:101E20006407840065080318650A85000008E60059
:101E300066082200B5002100620886000130870094
:101E4000403FE400413FE5006408840065088500E8
:101E50000008BF3EE600FF3003180030E700003006
:101E600067021A3003196602031C372F392F01301D
:101E70003A2F0030E800E90168082200AC00210098
:101E800069082200AD002C082D040319482F492FA2
:101E90005E2F21006308860001308700010884005E
:101EA0000130850004308107003F2200AE00013F71
:101EB000AF00023FB000033FB100722F2100630862
:101EC000860001308700010884000130850004305D
:101ED0008107003F2200AE00013FAF00023FB0008B
:101EE000033FB10021006208860001308700023004
:101EF000810741310318810A220031082100A30023
:101F0000220030082100A20022002F082100A10099
:101F100022002E082100A000220035082100E40044
:101F20006408A4002200360880316E208C31210024
:101F30002108E3002008E200FF2F2100620886004C
:101F400001308700403FE400413FE5006408840021
:101F5000650885001200253A031DAF2FB02FCC2F46
:101F60006208860001308700013081074131031883
:101F7000810A2530F0000030F100220036082100EF
:101F8000E4006408F2009C3191248C31013021007E
:101F9000E2000030E300FF2F620886000130870076
:101FA0000130810741310318810AE201E301FF2F6B
:101FB0006208860001308700403FE400413FE500B1
:101FC00064088400650885000008E600E7016608EB
:101FD000F0006708F100220036082100E8006808D8
:101FE000F2009C3191248C3121006208860001307E
:101FF00087000130810741310318810AC62F08008C
:102000006230320099009B019D0103309F009E01C8
:1020100008002200C4003C302100EF006F082200BD
:10202000C50044082100EF006F082200C600C70168
:10203000C801C901CA013B082100EB0022003A088F
:102040002100EA004530EF006F08EC0046309B317C
:10205000B92390312200470844072100EF006F08A0
:1020600086000130870081010800F20128308600D7
:1020700000308700473FF000F01F3F2840286128CC
:102080002000A809A909AA09AB09AC09AD09AE0944
:10209000AF09A80A031D5F28A90A031D5F28AA0A21
:1020A000031D5F28AB0A031D5F28AC0A031D5F28D0
:1020B000AD0A031D5F28AE0A031D5F28AF0AF201B7
:1020C000F20A2030860000308700473FF000F01F02
:1020D0006A286B288A282000A009A109A209A3095F
:1020E000A409A509A609A709A00A031D8A28A10A0F
:1020F000031D8A28A20A031D8A28A30A031D8A2811
:10210000A40A031D8A28A50A031D8A28A60A031DFE
:102110008A28A70A2000200821042204230424047A
:10212000250426042704031996289728EA28F10194
:10213000F10AA628A035A10DA20DA30DA40DA50D91
:10214000A60DA70D0130F0007008F107A71FA92800
:10215000AA289A2827082F02031DC82826082E021D
:10216000031DC82825082D02031DC82824082C0299
:10217000031DC82823082B02031DC82822082A0291
:10218000031DC82821082902031DC8282008280289
:10219000031CCB28CC28DC282008A8022108A93B56
:1021A0002208AA3B2308AB3B2408AC3B2508AD3BE7
:1021B0002608AE3B2708AF3BA736A60CA50CA40CFF
:1021C000A30CA20CA10CA00C0130F102031DE92804
:1021D000EA28AA2872080319EE28EF280D29A80971
:1021E000A909AA09AB09AC09AD09AE09AF09A80A4A
:1021F000031D0D29A90A031D0D29AA0A031D0D2976
:10220000AB0A031D0D29AC0A031D0D29AD0A031DE0
:102210000D29AE0A031D0D29AF0A20002808A000D1
:102220002908A1002A08A2002B08A3002C08A4005A
:102230002D08A5002E08A6002F08A70008002300DF
:1022400023082000DD00230022082000DC002300FA
:1022500021082000DB00230020082000DA004D08C0
:10226000DD004C08DC004B08DB004A08DA005A08A5
:10227000CE005B08CF005C08D0005D08D1001730AD
:10228000D136D00CCF0CCE0C890B4029FF304E0537
:10229000D20000304F05D3005208813ED800FF30F5
:1022A000533DD9005908803ACE0080304E02031DBC
:1022B0005B2917305802031C5E295F296029092A0F
:1022C0002000D91B64296529C229FF30CE00FF30C8
:1022D000CF007F30D0000030D100580A7329D137A9
:1022E000D00CCF0CCE0C890B6F295108D7005008A9
:1022F000D6004F08D5004E08D4005A085405CE0029
:102300005B085505CF005C085605D0005D085705F1
:10231000D100510850044F044E04031D9029912907
:1023200092295F295A08CE005B08CF005C08D000D4
:102330005D08D1001F30D136D00CCF0CCE0C890BEC
:102340009B29510850044F044E040319A829A929B8
:10235000B1295408DA075508DB3D5608DC3D57081B
:10236000DD3D5409CE005509CF005609D00057096C
:10237000D1004E08DA054F08DB055008DC0551088E
:10238000DD05012A5A08CE005B08CF005C08D000AA
:102390005D08D1001F30D136D00CCF0CCE0C890B8C
:1023A000CB29510850044F044E04031DD829D929C4
:1023B000E2290030DD000030DC000030DB000030BE
:1023C000DA00012A5A08CE005B08CF005C08D00072
:1023D0005D08D1000130CE35CF0DD00DD10D890B68
:1023E000EB29510850044F044E040319F829F92928
:1023F000012ABF30DD008030DC000030DB0000301F
:10240000DA005D08CD005C08CC005B08CB005A0800
:10241000CA000800F2012030860000308700473FE4
:10242000F000F01F142A152A362A2000A009A1095D
:10243000A209A309A409A509A609A709A00A031DC1
:10244000342AA10A031D342AA20A031D342AA30A2E
:10245000031D342AA40A031D342AA50A031D342AA5
:10246000A60A031D342AA70AF201F20A28308600C0
:1024700000308700473FF000F01F3F2A402A632AC0
:102480002000A809A909AA09AB09AC09AD09AE0940
:10249000AF09A80A031D5F2AA90A031D5F2AAA0A19
:1024A000031D5F2AAB0A031D5F2AAC0A031D5F2AC6
:1024B000AD0A031D5F2AAE0A031D5F2AAF0A013071
:1024C000F0007008F2067330860000308700083094
:1024D000F00000301E00F00B6A2A200020082104C2
:1024E0002204230424042504260427040319792A3A
:1024F0007A2AD62AF101F10A892AA035A10DA20D66
:10250000A30DA40DA50DA60DA70D0130F0007008B8
:10251000F107A71F8C2A8D2A7D2AF335F40DF50DBE
:10252000F60DF70DF80DF90DFA0D27082F02031D12
:10253000B32A26082E02031DB32A25082D02031DE7
:10254000B32A24082C02031DB32A23082B02031DDF
:10255000B32A22082A02031DB32A21082902031DD7
:10256000B32A20082802031CB62AB72AC82A200842
:10257000A8022108A93B2208AA3B2308AB3B240858
:10258000AC3B2508AD3B2608AE3B2708AF3B731498
:10259000A736A60CA50CA40CA30CA20CA10CA00C95
:1025A0000130F102031DD52AD62A8D2A720803199B
:1025B000DA2ADB2AF92AF309F409F509F609F709F9
:1025C000F809F909FA09F30A031DF92AF40A031DA7
:1025D000F92AF50A031DF92AF60A031DF92AF70A52
:1025E000031DF92AF80A031DF92AF90A031DF92A1D
:1025F000FA0A73082000A0007408A1007508A20060
:102600007608A3007708A4007808A5007908A6003A
:102610007A08A70008009A311F2293310230A731AF
:10262000C32793310032003200000230A731D02797
:1026300093311C308600273087007008C03F710836
:10264000C13F3F30A731C327933100320032000031
:102650003F30A731D02793311C30860027308700C8
:1026600042317008C03F7108C13F1C3086002730DE
:1026700087004231403F2200CB00413FCC004B0855
:10268000F0004C08F100F201F30100309E31A52664
:10269000933173082200E8007208E7007108E60031
:1026A0007008E5001C30860027308700403FCB00D3
:1026B000413FCC004B08F0004C08F100F201F3015F
:1026C00000309E31A526933173082200E400720881
:1026D000E3007108E2007008E10064082000CD000A
:1026E000220063082000CC00220062082000CB00FA
:1026F000220061082000CA00220068082000B30000
:10270000220067082000B200220066082000B10005
:10271000220065082000B0004030B7008130B600CC
:102720008D30B5006D30B4008831762093312000B3
:102730003308D1003208D0003108CF003008CE0075
:102740008A312A229331E830860027308700200022
:102750004A08C03F4B08C13F4C08C23F4D08C33F29
:102760004030AF005130AE004730AD00AE30AC006D
:10277000E830860027308700403FA800413FA9008D
:10278000423FAA00433FAB009A31A0229331200080
:102790002B08B7002A08B6002908B5002808B4009D
:1027A0003B30B3002330B200D730B1000A30B00064
:1027B00088317620933120003308CD003208CC00D8
:1027C0003108CB003008CA00883101209331200045
:1027D0004B082200EB0020004A082200EA00EB1F11
:1027E000F22BF32BF62BEA01EB01032C01306B02E9
:1027F0000F3003196A02031CFE2BFF2B032C0E3033
:10280000EA000130EB000030BA00A830BB006B08D2
:1028100085006A0884008435850D0030840798306F
:10282000853D003FBC00013FBD00E83086002730F9
:102830008700403FBE00413FBF00423FC000433FD2
:10284000C1004D309031092093314D302200CB0032
:102850004B08E900382C6908860001308700010820
:10286000A731AD27933101302200CB004B08E90797
:1028700069088600013087000108031D402C412CA7
:102880002B2C02302200CC004530CB00A930890B24
:10289000472CCB0B472CCC0B472C00320E2B803116
:1028A00002282000BD003008C4003108C5003208ED
:1028B000C6003308C7003408C8003508C900360808
:1028C000CA003708CB004430860000308700473FFD
:1028D000B800B81B6C2C6E2C01306F2C003020001F
:1028E000B900BA013908C2003A08C30042084304DB
:1028F00003197B2C7C2C9A2CC409C509C609C7096D
:10290000C809C909CA09CB09C40A031D9A2CC50AFA
:10291000031D9A2CC60A031D9A2CC70A031D9A2C64
:10292000C80A031D9A2CC90A031D9A2CCA0A031D42
:102930009A2CCB0A2200ED1B9E2C9F2CA32CFD3041
:10294000EE05FF30EF056D08803A2000B8008030BA
:102950003802031DAE2C013022006C020318B12C8A
:10296000B22CB82C01302000BE000030BF00C02CBB
:1029700022006D082000BF0022006C082000BE006D
:1029800023002B082000C10023002A082000C000DB
:1029900042084304031DCD2CCE2CD32C22006E1DE7
:1029A000D22CD32CD82CFF302000C007FF30C13DE3
:1029B0004F302000CC000030CD002400EF01492D25
:1029C000FF302000CC07FF30CD3D0A30A000A10130
:1029D000A201A301A401A501A601A7014408A80022
:1029E0004508A9004608AA004708AB004808AC0003
:1029F0004908AD004A08AE004B08AF0090313520C1
:102A0000943120002108F4002008F3009A314D226F
:102A100094317308303E2000B8004C08203E8600F8
:102A20000230870038088100FF30BE07FF30BF3D0D
:102A3000FF30C007FF30C13D0A30A000A101A20154
:102A4000A301A401A501A601A7014408A800450807
:102A5000A9004608AA004708AB004808AC0049088E
:102A6000AD004A08AE004B08AF0092310A22943103
:102A700020002008C4002108C5002208C600230841
:102A8000C7002408C8002508C9002608CA0027086E
:102A9000CB0020004D08803AB80080303802031D7A
:102AA000532D01304C02031C562D572D842D200030
:102AB0004408450446044704480449044A044B04B6
:102AC000031D632D642DE02C3F08803AB800803050
:102AD0003802031D6D2D01303E020318702D712D3B
:102AE000E02C20004108803AB80080303802031DF5
:102AF0007B2D01304002031C7E2D7F2D842D220072
:102B0000EE18832D842DE02C200042084304031D81
:102B10008A2D8B2D902D22006E1D8F2D902DAD2D89
:102B2000FF302000CC07FF30CD3D42084304031D99
:102B30009A2D9B2DA02D2B30BB000030BC00A42D66
:102B40002D30BB000030BC003B08B8004C08203ED4
:102B50008600023087003808810020004C08203EA3
:102B6000B8003808A4004108A6004008A5003D08A8
:102B70009C31E724943120002508B1002408B000DE
:102B80000800730880392000A0002008F800733581
:102B9000A0002008FA00F21FCE2DCF2DD02D7A14E0
:102BA0007A080319D42DD52DE52D7A0A031DD92DC8
:102BB000DA2DE22D0030F3000030F2000030F10099
:102BC0000030F000F217F301ED2D0030F30000307B
:102BD000F2000030F1000030F00077088039A000EA
:102BE0002008F900790878060319F72DF82DF92D3A
:102BF00078177735A0002008F900F61F002E012E67
:102C0000022E791479080319062E072E172E790A39
:102C1000031D0B2E0C2E142E0030F7000030F60092
:102C20000030F5000030F400F617F7011F2E0030D9
:102C3000F7000030F6000030F5000030F4007A08AC
:102C400079020318242E252E692E781F282E292E6E
:102C50002D2E8030A0002008F8067A08A000200859
:102C6000FB007908A0002008FA007B08A0002008DB
:102C7000F9007008A0002008FB007408A0002008DC
:102C8000F0007B08A0002008F4007108A0002008D4
:102C9000FB007508A0002008F1007B08A0002008B8
:102CA000F5007208A0002008FB007608A0002008AC
:102CB000F2007B08A0002008F6007308A00020089E
:102CC000FB007708A0002008F3007B08A000200884
:102CD000F700FB017908A000A1012108A3007A08F0
:102CE0002002A200031CA3032308803AA400803022
:102CF0002402031D7D2E1A302202031C802E812EF9
:102D0000BB2E7308720471047004031D882E8A2E72
:102D100001308B2E00302000A0002008FB00003086
:102D2000F3000030F2000030F1000030F0007908CC
:102D3000A0002008FA00C12E7B1C9F2EA02EA72EDB
:102D40007B3601382000A0002008FB00A92E0310CC
:102D5000FB0C701CAC2EAD2EAE2EFB1701302000EC
:102D6000A000F337F20CF10CF00CA00BB12E0130E7
:102D7000A0002008FA0779087A02031CC02EC12E91
:102D80009C2E781BC42EC52EFF2E7A08031DC92E3B
:102D9000CA2ED32E0030F3000030F2000030F100D4
:102DA0000030F000FF2F7408F0077508F13D760839
:102DB000F23D7708F33D731CDE2EDF2E8C2F7B1C3B
:102DC000E22EE32EEA2E7B3601382000A0002008F8
:102DD000FB00EC2E0310FB0C701CEF2EF02EF12EDE
:102DE000FB1701302000A000F337F20CF10CF00CBF
:102DF000A00BF42E0130A0002008FA078C2F7308D6
:102E0000803A2000A0007708803A2002031D122F8C
:102E100076087202031D122F75087102031D122F0E
:102E2000740870020318152F162F4E2FFF30A000C4
:102E3000FF30A100FF30A200FF30A3007008740231
:102E4000A4007108753BA5007208763BA6007308C4
:102E5000773BA7002408A0072508A13D2608A23D2E
:102E60002708A33D2308F3002208F2002108F100FF
:102E70002008F0008030A0002008F806FB09FB0ABB
:102E80007B08031D442F452F562F0130F0070030DB
:102E9000F13D0030F23D0030F33D562F7408F00252
:102EA0007508F13B7608F23B7708F33B7308720430
:102EB00071047004031D5D2F5E2F882F7B08031D96
:102EC000622F632F882F0030F3000030F2000030B3
:102ED000F1000030F000FF2F0130F035F10DF20D60
:102EE000F30D890B6D2FFB1F762F772F782F701422
:102EF0007B1C7B2F7C2F7F2F0314FB0D812F031056
:102F0000FB0D7A080319852F862F882F0130FA02CE
:102F1000F21F8B2F8C2F6C2FF901FB1F902F912FFD
:102F20009F2F7B087F390319962F972F9A2FF9012E
:102F3000F90A9F2F701C9D2F9E2F9F2F972F790886
:102F40000319A32FA42FD22F0130F0070030F13D39
:102F50000030F23D0030F33D731CAF2FB02FD22F65
:102F600070082000A0007108A1007208A200730878
:102F7000A3000130A400A337A20CA10CA00CA40B49
:102F8000BB2F2308F3002208F2002108F1002008DB
:102F9000F0007A0A0319CD2FCE2FD22F0130A000D6
:102FA0002008FA077A0A0319D62FD72FDC2F7A08C0
:102FB000031DDB2FDC2FEA2F0030F3000030F2007E
:102FC0000030F1000030F0007A08031DE82FE92FEF
:102FD000EA2FF8017A1CED2FEE2FF02FF217F52FC4
:102FE0007F302000A0002008F2057A362000A000E3
:102FF0002008F300F81FFD2FFE2FFF2FF317080006
:1030000043340134473401344C34013450340134F6
:1030100055340134593401345E340134633401349D
:10302000673401346C340134713401347634013442
:103030007B34013480340134853401348B340134E1
:1030400090340134953401349B340134A03401347C
:10305000A6340134AC340134B2340134B734013411
:10306000BD340134C3340134C9340134D0340134A3
:10307000D6340134DC340134E3340134E93401342E
:10308000F0340134F6340134FD34013404340234B4
:103090000B34023412340234193402342134023431
:1030A000283402342F340234373402343F340234AB
:1030B000463402344E340234563402345E34023420
:1030C000663402346F34023477340234803402348C
:1030D00088340234913402349A340234A3340234F2
:1030E000AC340234B5340234BF340234C834023450
:1030F000D2340234DB340234E5340234EF340234A7
:10310000F9340234043403340E34033419340334F0
:10311000233403342E340334393403344434033435
:10312000503403345B34033467340334733403346E
:103130007E3403348B34033497340334A3340334A0
:10314000B0340334BD340334C9340334D7340334C6
:10315000E4340334F1340334FF3403340D340434E1
:103160001B340434293404343734043446340434EE
:1031700055340434643404347334043482340434F1
:1031800092340434A1340434B1340434C2340434E9
:10319000D2340434E3340434F434043405340534D0
:1031A00016340534283405343A3405344C340534A7
:1031B0005E34053470340534833405349634053474
:1031C000AA340534BD340534D1340534E53405342E
:1031D000FA3405340E3406342334063438340634D5
:1031E0004E340634643406347A340634903406346B
:1031F000A7340634BE340634D5340634ED340634F0
:10320000053407341D340734353407344E3407345D
:1032100068340734813407349B340734B5340734B9
:10322000D0340734EB3407340734083422340834FC
:103230003E3408345B340834783408349534083428
:10324000B3340834D1340834EF3408340E3409343C
:103250002D3409344D3409346D3409348E34093435
:10326000AF340934D0340934F234093415340A3413
:1032700038340A345B340A347F340A34A3340A34D1
:10328000C8340A34ED340A3413340B3439340B3473
:1032900060340B3487340B34AF340B34D7340B34F5
:1032A00000340C342A340C3454340C347E340C3452
:1032B000AA340C34D5340C3402340D342F340D348C
:1032C0005C340D348A340D34B9340D34E9340D34A2
:1032D00019340E344A340E347B340E34AD340E348B
:1032E000E0340E3413340F3447340F347C340F344D
:1032F000B2340F34E8340F341F34103456341034E1
:103300008F341034C8341034023411343D34113445
:1033100079341134B5341134F23411343034123478
:103320006F341234AF341234EF3412343134133476
:1033300073341334B6341334FB341334403414343C
:1033400086341434CD341434143415345D341534C7
:10335000A7341534F23415343E3416348B34163415
:10336000D93416342834173478341734C934173420
:103370001B3418346E341834C334183418341934E8
:103380006F341934C734193420341A347B341A3466
:10339000D6341A3433341B3491341B34F0341B3498
:1033A00051341C34B3341C3416341D347A341D3477
:1033B000E0341D3447341E34B0341E341A341F3404
:1033C00086341F34F3341F3461342034D134203434
:1033D00043342134B53421342A342234A034223405
:1033E00018342334913423340C3424348934243471
:1033F0000734253487342534093426348C34263474
:10340000113427349834273421342834AC34283408
:1034100039342934C734293458342A34EA342A3424
:103420007E342B3415342C34AD342C3447342D34C5
:0C343000E4342D3483342E3423342F3444
:10343E00A7319C279A319B3147239A319031002036
:10344E009A31A73186279A31A73182279A31A7312F
:10345E00A4279A319B3102239A3108007008BF3E8F
:10346E00F200FF30713DF300003073021A30031981
:10347E007202031C432A452A0130462A0030F4000A
:10348E00F5017408F0007508F10008007408803A20
:10349E00F50080307502031D562A013073020318A1
:1034AE00592A5A2A662A7309F5007409F600F50A94
:1034BE000319F60A7508F3007608F400662A080068
:1034CE00F4007408F2007208F300712A0130F20061
:1034DE007208F40774088600023087000108031D85
:1034EE00792A7A2A6D2A73087402F000F101F01B12
:1034FE00F1030800F401F501701C862A872A8B2A35
:10350E007208F4077308F53D0130F235F30D890B9F
:10351E008C2A0130F136F00C890B912A7008710457
:10352E00031D9A2A9B2A832A7508F1007408F0005D
:10353E00080080302000AB062F08F3002E08F200A2
:10354E002D08F1002C08F0002B08F7002A08F600D1
:10355E002908F5002808F4009531C1259A31730821
:10356E002000AB007208AA007108A9007008A8001C
:10357E000800F401F40A2030700671040319C82AF9
:10358E00C92AD92A7008F73EF200FF30713DF300C8
:10359E0000307302053003197202031CD72AD82A91
:1035AE00D92AF4017408F200F3017208F0007308CE
:1035BE00F1000800F7007108F5007008F4007708B4
:1035CE00F2007208F6007608860002308700F60ACE
:1035DE007508F3007408F200F40A0319F50A72086C
:1035EE008400730885000008C03F8908031D002B66
:1035FE00012BEA2A0800083023009F0090309D001E
:10360E0024309E0019309B009C010030F0000030E9
:10361E00F100A73190279B310030F0000030F1000F
:10362E00A73196279B310030F0000030F100A73112
:10363E008A279B312300AE010800F800F401F50142
:10364E007008F200F3017208F6007308F700781C98
:10365E00312B322B362B7608F4077708F53D0130E7
:10366E00F635F70D890B372B0310F80C7808031D70
:10367E00412B422B2E2B7508F1007408F000080028
:10368E0022008C018E01373021008C002F308E00ED
:10369E001F3023008E0037308C0024008C018E01E9
:1036AE0025008C018E01373026008C003F308E00B5
:1036BE003F3027008C003F308E0015303C00A400B8
:1036CE0014303D00A40008007608BF3EF800FF301D
:1036DE00773DF900003079021A3003197802031C85
:1036EE00792B7B2B01307C2B0030FA00FB017A0802
:1036FE00FC007B08FD007C087D040319872B882BBA
:10370E008F2B20307604F60000307704F7008F2BD5
:10371E0008002000A300A101A201A82B2008F90097
:10372E00FA017908F0007A08F1007808FB007B08AE
:10373E00F2009C3191249B3101302000A107003012
:10374E00A23D21082307F900790886000230870080
:10375E000108FA007A08A0002008031DB72BB82B29
:10376E00952B08002200B70021006B082200B9003B
:10377E0021006A082200B8002300A801A901DD2B50
:10378E0038302100ED006D08E2006C08EE006E0886
:10379E00E300220037088C3181249B31210062081E
:1037AE002300A807210063082300A93D2200380842
:1037BE008400390885001200031DE62BE72BC72B6A
:1037CE00230029082100EB00230028082100EA002D
:1037DE00080000307005F80000307105F9008030E7
:1037EE007205FA007F307305FB007B087A047904BA
:1037FE007804031D032C042C0C2C0030F300003035
:10380E00F2000030F1000030F00000307405F800D6
:10381E0000307505F90080307605FA007F307705A7
:10382E00FB007B087A0479047804031D1F2C202CDE
:10383E00282C0030F7000030F6000030F500003084
:10384E00F40077087306031D362C76087206031DE6
:10385E00362C75087106031D362C74087006031974
:10386E00392C3A2C3C2C03103D2C03140800F60185
:10387E00F31F422C432C4A2CF209F309F20A0319C6
:10388E00F30AF601F60AF11F4D2C4E2C532CF009BB
:10389E00F109F00A0319F10A700871040319582C82
:1038AE00592C822CF501F50A652C0130F035F10DFD
:1038BE00890B5D2C0130F4007408F507F11F682C9C
:1038CE00692C5C2C71087302031D6F2C7008720238
:1038DE00031C722C732C772C7008F2027108F33BC8
:1038EE000130F136F00C890B782C0130F502031DF6
:1038FE00812C822C692C76080319862C872C8C2C13
:10390E00F209F309F20A0319F30A7308F1007208B7
:10391E00F000080072080319952C962C9B2C720847
:10392E00031D9A2C9B2CA02C7008883100209C31F2
:10393E00E62C7208033E8600013087001600010453
:10394E000319AA2CAB2CCA2C7208033E8600013038
:10395E008700403FF300413FF400720A86000130B9
:10396E008700403FF500413FF6007608803AF700A9
:10397E007408803A7702031DC62C7308750203186B
:10398E00C92CCA2CE62C7008F30072088600013090
:10399E008700720A84000130850000080107F400D8
:1039AE00740886000130870073088100720A860051
:1039BE00013087000130810741310318810A080068
:1039CE002000AB0022006E1CED2CEE2CF72C2000FC
:1039DE002B08FC007C08F80024089B3190239C31B6
:1039EE002000A61BFB2CFC2C012D2608AA00250866
:1039FE00A900032DA901AA01A701A801172D2030A6
:103A0E00F0000030F10020002B08FC007C08F200D2
:103A1E009C3191249C3101302000A7070030A83D35
:103A2E002808803AFC002A08803A7C02031D212DCA
:103A3E0029082702031C242D252D062D22006E1881
:103A4E00292D2A2D332D20002B08FC007C08F80090
:103A5E0024089B3190239C31200024089A31672240
:103A6E009C31200029087007A4002A08713DA5008A
:103A7E000800F5007508F4007408F8007108F700E6
:103A8E007008F6000130F2020030F33B720A031D9B
:103A9E00542D730A031D542D552D642DF001F10183
:103AAE009A2D0130F4007408F8070130F607003043
:103ABE00F73D0130F2020030F33B7808860001300A
:103ACE008700010803196C2D6D2D8C2D760884004E
:103ADE007708850012000319752D762D8C2D72082E
:103AEE00730403197B2D7C2D8C2D760884007708AA
:103AFE0085000008F4007808860001308700010870
:103B0E00740603198B2D8C2D582D780886000130E4
:103B1E008700760884007708850000080102F0000F
:103B2E00F101031CF1030800230027082000A50063
:103B3E00230026082000A400230025082000A3004F
:103B4E00230024082000A2007308A5007208A40018
:103B5E007108A3007008A2002208F4002308F500E3
:103B6E002408F6002508F7001730F736F60CF50C8A
:103B7E00F40C890BBC2DFF307405A00000307505C8
:103B8E00A10020082104031DCD2DCE2DEF2D2208DE
:103B9E00F4002308F5002408F6002508F70001308C
:103BAE00F435F50DF60DF70D890BD72D7708760444
:103BBE0075047404031DE42DE52DEA2D0230F0008A
:103BCE000030F100192E0330F0000030F100192EF4
:103BDE00200A2104031DF42DF52D152E2208F400C4
:103BEE002308F5002408F6002508F7000930F435FF
:103BFE00F50DF60DF70D890BFE2D7708760475047D
:103C0E00740403190B2E0D2E01300E2E0030F80009
:103C1E00F9017808F0007908F100192E0430F0004F
:103C2E000030F1000800003020006405EC00003088
:103C3E006505ED0080306605EE007F306705EF000C
:103C4E006F086E046D046C04031D2E2E2F2E372E5E
:103C5E000030E7000030E6000030E5000030E40000
:103C6E0000306805EC0000306905ED0080306A0513
:103C7E00EE007F306B05EF006F086E046D046C0470
:103C8E00031D4A2E4B2E532E0030EB000030EA005F
:103C9E000030E9000030E800E71F562E572E6F2E39
:103CAE000030EC000030ED000030EE008030EF0010
:103CBE006408EC026508ED3B6608EE3B6708EF3BD7
:103CCE006F08E7006E08E6006D08E5006C08E4007A
:103CDE00EB1F722E732E8B2E0030EC000030ED0099
:103CEE000030EE008030EF006808EC026908ED3B12
:103CFE006A08EE3B6B08EF3B6F08EB006E08EA00BC
:103D0E006D08E9006C08E8008030E7068030EB06AD
:103D1E006B086702031D9D2E6A086602031D9D2E09
:103D2E0069086502031D9D2E680864020318A02E03
:103D3E00A12EA32E0310A42E03140800F800780859
:103D4E000319AA2EAB2EBF2EF31FAE2EAF2EBF2EF3
:103D5E007009FA007109FB007209FC007309FD007D
:103D6E00FA0A0319FB0A0319FC0A0319FD0AC72EE6
:103D7E007308FD007208FC007108FB007008FA0061
:103D8E007308720471047004031DCE2ECF2ED82E2C
:103D9E000030F3000030F2000030F1000030F0008F
:103DAE00502F9630F4007408F900E82E0130F4001C
:103DBE007408F9070130FD36FC0CFB0CFA0C890B6C
:103DCE00E22EFE307D05031DED2EEE2EDD2E022F92
:103DDE000130F4007408F9070130FA070030FB3D9A
:103DEE000030FC3D0030FD3D0130FD36FC0CFB0C7F
:103DFE00FA0C890BFC2EFF307D05031D072F082FB3
:103E0E00EF2E122F0130F9020130FA35FB0DFC0DA9
:103E1E00FD0D890B0C2FFC1B152F162F1C2F02309E
:103E2E00790203181B2F1C2F092F79181F2F202FF3
:103E3E00282FFF30FA05FF30FB057F30FC05FF30E1
:103E4E00FD050310F90C7908F400F501F601F701F0
:103E5E001830F435F50DF60DF70D890B302F74086B
:103E6E00FA047508FB047608FC047708FD0478084C
:103E7E000319422F432F482FF31F462F472F482F4A
:103E8E00FD177D08F3007C08F2007B08F1007A082C
:103E9E00F00008002000A701A801A001A1015B2FDE
:103EAE000130F6070030F73DA601A60A7608840019
:103EBE00770885001200203A0319662F672F7C2F92
:103ECE0076088400770885000008F73EF800FF307A
:103EDE0003180030F900003079020530031978021A
:103EEE00031C7A2F7B2F7C2FA6012608F800F901E0
:103EFE007808A2007908A30022082304031D882F46
:103F0E00892F572F932F0130A0000030A1000130D0
:103F1E00F6070030F73DC72F760884007708850036
:103F2E000008F800F9017908003A03199F2FC72FEE
:103F3E0078082B3A03198E2F063A03198A2FC72FAA
:103F4E0076088400770885000008F8002808F1003C
:103F5E002708F0000A30F2000030F3009A31812277
:103F6E009F317108FA0078087002F900031CFA03F9
:103F7E007908303E2000A70000307A3DA8008E2F31
:103F8E0076088400770885000008D03EF800FF30E0
:103F9E0003180030F900003079020A300319780254
:103FAE00031CDA2FDC2F0130DD2F0030FA00FB016D
:103FBE007A08A4007B08A50024082504031DE82F19
:103FCE00E92FA72F20082104031DEE2FEF2FFB2F23
:103FDE002709F8002809F900F80A0319F90A7808E0
:103FEE00F6007908F700FF2F2808F7002708F600DB
:023FFE000800B9
:104F04008330220097000800163021009700080023
:104F140071082300B0007008AF0008007108230076
:104F2400B4007008B300080071082300B2007008D0
:104F3400B10008003200910192019301940195019E
:104F440096010800803021009E009F019B019C0176
:104F5400FD309D000800F0002000111EB22FB32F79
:104F6400AE2F700823009A0008006400800101310C
:104F74000130FE020030FF3B7F087E04031DB82F82
:104F84000034F1007108F000F00DF00D21001D084F
:104F94007006033970069D001D140800F3007308A1
:104FA400F200F20DF20D21001D087206033972069B
:104FB4009D001D14000021009D149D18E22FE32F75
:104FC400DF2F1C08F1001B08F00008007008D03E19
:104FD400F200FF30713DF300003073020A30031910
:104FE4007202031CF62FF82F0130F92F0030F40061
:104FF400F5017408F0007508F100080025346434E4
:105004002C34253435342E343334663456340D344C
:105014000A34003449344E34463400344E34413476
:105024004E34003469346E34663400346E34613482
:0A5034006E3400346C34663400342E
:020000040001F9
:08000E00EC3FF33FFF3FFF3F11
:00000001FF
