:04000000803115280E
:100008007E1480312100901E0A280B281328200016
:10001800901E0F281028132880319E2080317E10D2
:10002800090080311728F801F901FA017E10200033
:100038008031B12822008C018E01073021008C000C
:1000480028308E00103023008E0007308C002400EA
:100058008C018E0125008C018E01373026008C0022
:100068003F308E003F3027008C003F308E00153027
:100078003C00A40014303D00A40008000830230010
:100088009F0090309D0024309E0067309B009C01AB
:100098000030FB000030FC008031D9208031003076
:1000A800FB000030FC008031D42080310030FB00A0
:1000B8000030FC008031C9208031FA01080050303E
:1000C80020009800D8309600F03095001608F70008
:1000D8001508F600901221009016E230FB0000305F
:1000E800FC008031CF20803190302000970008003C
:1000F8008031B920803180311E2080318031A820A4
:1001080080318031DE2080318031C12080318031E2
:1001180063208031803142208031080074087504E2
:100128000319972898289D2875088A0074080A00DA
:100138008031080020009012770896007608950014
:1001480080319220803108006030320099009B0194
:100158009D0103309F009E01080080317C20803182
:100168008B170B17B62880311528320091019201A0
:100178009301940195019601080021009E019F01B9
:100188009B019C0109309D0008007C082000A1000B
:100198007B08A00008007C08F5007B08F400080034
:1001A8007C08F1007B08F00008007C08F3007B085D
:0E01B800F20008001630210097000800080031
:020000040001F9
:08000E00EC3FF33FFF3FFF3F11
:00000001FF
